:020000040800F2
:1000000000040020C10100089116000891160008A4
:100010009116000891160008911600089116000824
:10002000911600089116000891160008A1470008D3
:100030009116000891160008911600089116000804
:1000400091160008911600089116000891160008F4
:1000500091160008911600089116000891160008E4
:10006000911600089116000891160008E14D00084D
:10007000114E0008514E0008914E0008D14E000864
:10008000014F0008414F0008911600089116000822
:1000900091160008911600089116000891160008A4
:1000A0009116000891160008911600089116000894
:1000B0004153000891160008911600089116000897
:1000C0009116000891160008911600089116000874
:1000D0009116000891160008515F00089160000811
:1000E0009116000891160008911600089116000854
:1000F000911600089116000891160008814F00081B
:100100009116000891160008911600089116000833
:100110009116000891160008911600089116000823
:10012000C14F0008F14F000831500008715000081D
:10013000B1500008215400089116000891160008DB
:1001400091160008911600089116000891160008F3
:10015000E15000082151000861510008715F00085A
:1001600091160008911600089116000891160008D3
:1001700091160008911600089116000891160008C3
:1001800091160008911600089116000891160008B3
:1001900091160008911600089116000891160008A3
:1001A0009116000891160008911600089116000893
:1001B0009116000891160008911600089116000883
:1001C00072B6204880F30988022080F31488BFF3B8
:1001D0006F8F05F0BDFF1C481C491D4A91423CBF72
:1001E00041F8040BFAE71B49164A91423CBF41F81B
:1001F000040BFAE71849194A194B9A423EBF51F8C5
:10020000040B42F8040BF8E700201649164A914205
:100210003CBF41F8040BFAE701F02AFA134C144DE5
:10022000AC4203DA54F8041B8847F9E739F0B8F90F
:10023000104C114DAC4203DA54F8041B8847F9E71F
:1002400001F01EBA00080020555555550000002049
:100250000004002000040020686309080008002052
:100260004C1300205013002058B20020C001000899
:10027000C0010008C0010008C00100080000000023
:100280002DE9F04FC1F80CD0D0F80CD0BDE8F08FBC
:1002900001F0C6FB002383F311882846A047002005
:1002A00002F0B6F801F0ACFB01F0AAFE01F0B8FBD9
:1002B00000DFFEE70000000000000000000000007A
:1002C0004BB942B9002908BF002802D04FF0FF31D6
:1002D000084600F03DB882B0EC462DE9005000F031
:1002E0001FF8DDF804E002B00CBC7047000000000D
:1002F0002DE9F041069C154606460F46984600F04B
:100300002FF805FB01F300FB0838A5FB0023B21A08
:10031000434467EB0303C4E90023BDE8F08100BF59
:100320002DE9F041069C904606460F461D4600F01A
:1003300067F900FB05F5A0FB082308FB0155B21A7D
:100340002B4467EB0303C4E90023BDE8F08100BF41
:10035000704700BF00000000000000000000000027
:1003600000292DE9F043C0F2A6800026002BC0F240
:100370009C80884694469E46154604460F46002BB0
:100380003DD18A4259D9B2FA82F33BB1C3F120027E
:100390009F4020FA02F29D4017439C40290C220CFA
:1003A000B7FBF1FEA8B201FB1E7742EA074700FB4C
:1003B0000EF3BB420AD97F190EF1FF3280F005819E
:1003C000BB4240F20281AEF1020E2F44FF1AA4B2EA
:1003D000B7FBF1F301FB137744EA074700FB03F097
:1003E000B84208D97F1903F1FF3280F0F080B8429B
:1003F00040F2ED80023B43EA0E43002203E08B42D1
:100400000FD900221346341C18BF012460424FF05C
:10041000000565EB45015840514000196941BDE8B0
:10042000F083B3FA83F2002A40F086808B4202D335
:10043000844500F2DB800123E5E712B90123B3FB19
:10044000F2F5B5FA85F000283BD1781B4FEA154E3E
:100450001FFA85FC0122B0FBFEF8210C0EFB1807E9
:1004600041EA07470CFB08F3BB4207D97F1908F1A3
:10047000FF3102D2BB4200F2BD808846FF1AA4B20F
:10048000B7FBFEF30EFB137744EA07470CFB03FCB4
:10049000BC4507D97F1903F1FF3102D2BC4500F2F8
:1004A000A7800B4643EA0843ADE752426FEA0606CF
:1004B00063EB43035DE7404261EB41014FF0FF36E0
:1004C00054E7C0F1200224FA02F107FA00F3854054
:1004D0004FEA154ED7401943B7FBFEF20B0C0EFB4B
:1004E00012771FFA85FC43EA07430CFB02F79F4291
:1004F00004FA00F407D95B1902F1FF3074D29F426D
:1005000072D9023A2B44DF1B89B2B7FBFEF80EFB0F
:10051000187341EA03430CFB08F79F4208D95B19A3
:1005200008F1FF315CD29F425AD9A8F102082B444E
:10053000D81B48EA02428EE7C2F120032CFA03F1ED
:100540000EFA02FE20FA03F741EA0E0E08FA02F054
:1005500028FA03F14FEA1E453843B1FBF5F8030CC6
:1005600005FB18111FFA8EF743EA014107FB08F358
:100570008B420CFA02FC09D911EB0E0108F1FF398C
:1005800030D28B422ED9A8F102087144C91A80B228
:10059000B1FBF5F305FB131140EA014107FB03F73B
:1005A0008F4208D911EB0E0103F1FF3016D28F42B2
:1005B00014D9023B714443EA0843C91BA3FB0C89CD
:1005C000494509D305D000221DE79646FEE61346AD
:1005D00011E794404445F6D2013BF4E70346EAE7CD
:1005E0008846A5E7C846D1E702468CE713460AE7E6
:1005F000023B57E7A8F102082F443FE70000000044
:100600002DE9F041002B44D18A42154604464FD9CA
:10061000B2FA82F70E464FB1C7F12003B94020FA73
:1006200003F602FA07F50E4300FA07F44FEA154EF7
:10063000230CB6FBFEF0AFB20EFB106143EA0143A0
:1006400007FB00F1994209D95B1900F1FF3280F0F4
:10065000EC80994240F2E98002382B445A1AA4B245
:10066000B2FBFEF30EFB132244EA024207FB03F740
:10067000974208D9521903F1FF3180F0D880974290
:1006800040F2D580023B43EA004000263146BDE8F7
:10069000F0818B4247D8B3FA83F6002E48D18B42C3
:1006A00002D3824200F2CD8001203146BDE8F081C4
:1006B00012B90125B5FBF2F5B5FA85F8B8F1000FCE
:1006C00077D14A1B4FEA154EAFB20126B2FBFEF0BE
:1006D000230C0EFB102143EA014107FB00F38B4280
:1006E00007D9491900F1FF3202D28B4200F2BA80D9
:1006F0001046C91AA4B2B1FBFEF30EFB131144EA73
:10070000014407FB03F7A74208D9641903F1FF323C
:1007100080F08F80A74240F28C80023B43EA004089
:100720003146BDE8F081002630463146BDE8F08113
:10073000C6F1200422FA04F5B3402B4320FA04FC4E
:1007400001FA06F721FA04F54FEA134E4CEA0707BF
:10075000B5FBFEF8390C0EFB18551FFA83FC41EA75
:1007600005450CFB08F1A94202FA06F204D9ED187E
:1007700008F1FF3467D3A0466D1ABFB2B5FBFEF493
:100780000EFB145547EA05410CFB04FC8C4504D9CB
:10079000C91804F1FF355CD32C4644EA0844CCEB7D
:1007A0000101A4FB0223994248D344D020460026ED
:1007B0006CE7C8F1200401FA08F305FA08F520FAFD
:1007C00004F7E1404FEA154E1F43B1FBFEF63A0C29
:1007D0000EFB16111FFA85FC42EA01430CFB06F2E0
:1007E0009A4200FA08F407D95B1906F1FF3137D2B3
:1007F0009A4235D9023E2B449B1ABFB2B3FBFEF09E
:100800000EFB103347EA03430CFB00F1994207D972
:100810005B1900F1FF3221D299421FD902382B44D3
:100820005A1A40EA0646674650E7104616E70B4656
:1008300029E7134672E7B0409042B7D2601E002607
:1008400024E7304622E7A94295D9A8F102081D44C1
:1008500092E78C45A0D9023C19449EE71046DFE799
:100860000E46C9E70238294443E700BF00000000F4
:10087000844641EA000313F003036DD1403A41D3AB
:1008800051F8043B40F8043B51F8043B40F8043B6A
:1008900051F8043B40F8043B51F8043B40F8043B5A
:1008A00051F8043B40F8043B51F8043B40F8043B4A
:1008B00051F8043B40F8043B51F8043B40F8043B3A
:1008C00051F8043B40F8043B51F8043B40F8043B2A
:1008D00051F8043B40F8043B51F8043B40F8043B1A
:1008E00051F8043B40F8043B51F8043B40F8043B0A
:1008F00051F8043B40F8043B51F8043B40F8043BFA
:10090000403ABDD2303211D351F8043B40F8043B99
:1009100051F8043B40F8043B51F8043B40F8043BD9
:1009200051F8043B40F8043B103AEDD20C3205D3A9
:1009300051F8043B40F8043B043AF9D2043208D0A1
:10094000D2071CBF11F8013B00F8013B01D30B8813
:1009500003806046704700BF082A13D38B078DD0F1
:1009600010F003038AD0C3F10403D21ADB071CBFC3
:1009700011F8013B00F8013B80D331F8023B20F82D
:10098000023B7BE7043AD9D3013A11F8013B00F866
:10099000013BF9D20B7803704B7843708B788370EE
:1009A00060467047000000000000000000000000EA
:1009B000A2EB0300704700BF02780B78012A28BF22
:1009C0009A42F5D16DE9044540EA0104CDE9026798
:1009D0006FF0000C4FEA447212B380EA010414F085
:1009E000070F6AD100F0070420F0070004F00305A8
:1009F00021F007014FEAC505F0E8042314F0040FC5
:100A0000F1E804670CFA05F462EA040266EA0406F7
:100A10000AD063EA0403624667EA0407664603E015
:100A2000F0E80423F1E8046782FA4CF582EA060450
:100A3000A4FA8CF46CBB83FA4CF583EA0705A5FA9B
:100A40008CF595B950E9022351E9026782FA4CF519
:100A500082EA0604A4FA8CF483FA4CF583EA0705CB
:100A6000A5FA8CF52543DBD09CB92DBAB5FA85F4EF
:100A700024F0070427FA04F1DDE9026723FA04F3FE
:100A800003F0FF0001F0FF01FDE80445A0EB0100C9
:100A9000704724BAB4FA84F424F0070426FA04F167
:100AA000DDE9026722FA04F202F0FF0001F0FF0123
:100AB000FDE80445A0EB0100704714F0030F3CD1A2
:100AC00010F0030428D150F8082B51F8083B82FAA3
:100AD0004CF582EA0305A5FA8CF55DB950F8042CB3
:100AE00051F8043C82FA4CF582EA0305A5FA8CF52C
:100AF000002DE8D02DBAB5FA85F424F0070423FAC6
:100B000004F122FA04F202F0FF0001F0FF01FDE817
:100B10000445A0EB010070474FEAC40420F0030035
:100B200050F8082B21F0030151F8083B0CFA04F4AB
:100B300062EA040263EA0403C9E710F003041AD06E
:100B4000A1EB040120F00300E40750F8042B06D0C9
:100B50000FD28B785FFAA2F4E41A06D12BB1CB78CE
:100B60005FFAB2F4E41A00D11BB920465DF8104BCD
:100B7000704701F1040150F8042BCC0721F0030168
:100B800051F8043B48D824D222F07F4482FA4CF535
:100B900094EA1325A5FA8CF50AD165B951F8043BFE
:100BA00084EA0204B4EB036F0ED150F8042BEBE798
:100BB0004FEA132355E035F07F454DD10878FDE825
:100BC0000445C0F1000070474FEA126203F0FF03D2
:100BD00047E002EA1C4482FA4CF594EA1345A5FA70
:100BE0008CF50AD165B951F8043B84EA0204B4EBF0
:100BF000034F0CD150F8042BEBE74FEA134330E0DE
:100C000015EA1C4528D10B884FEA124229E04FEA29
:100C1000124203EA1C4324E002F0FF0482FA4CF57E
:100C200094EA1365A5FA8CF50AD165B951F8043B2D
:100C300084EA0204B4EB032F09D150F8042BEBE74C
:100C40004FEA13630DE015F0FF0F05D10B684FEA73
:100C5000122223F07F4304E04FF00000FDE804453A
:100C6000704712BA1BBA82FA4CF482EA0304A4FA5F
:100C70008CF5B5FA85F402FA04F203FA04F34FEAAC
:100C80001260FDE80445A0EB13607047AFF30080ED
:100C900081F0004102E000BF83F0004330B54FEA2D
:100CA00041044FEA430594EA050F08BF90EA020F9A
:100CB0001FBF54EA000C55EA020C7FEA645C7FEA2D
:100CC000655C00F0E2804FEA5454D4EB5555B8BF50
:100CD0006D420CDD2C4480EA020281EA030382EAC1
:100CE000000083EA010180EA020281EA0303362D53
:100CF00088BF30BD11F0004F4FEA01314FF4801C26
:100D00004CEA113102D0404261EB410113F0004F37
:100D10004FEA03334CEA133302D0524263EB4303EE
:100D200094EA050F00F0A780A4F10104D5F1200E8C
:100D30000DDB02FA0EFC22FA05F2801841F10001E7
:100D400003FA0EF2801843FA05F359410EE0A5F1BB
:100D500020050EF1200E012A03FA0EFC28BF4CF0EC
:100D6000020C43FA05F3C01851EBE37101F00045A2
:100D700007D54FF0000EDCF1000C7EEB00006EEBAF
:100D80000101B1F5801F1BD3B1F5001F0CD3490839
:100D90005FEA30004FEA3C0C04F101044FEA445290
:100DA00012F5800F80F09A80BCF1004F08BF5FEA17
:100DB000500C50F1000041EB045141EA050130BDF7
:100DC0005FEA4C0C404141EB010111F4801FA4F19A
:100DD0000104E9D191F0000F04BF01460020B1FAEF
:100DE00081F308BF2033A3F10B03B3F120020CDA27
:100DF0000C3208DD02F1140CC2F10C0201FA0CF005
:100E000021FA02F10CE002F11402D8BFC2F1200C69
:100E100001FA02F120FA0CFCDCBF41EA0C0190401F
:100E2000E41AA2BF01EB0451294330BD6FEA040468
:100E30001F3C1CDA0C340EDC04F11404C4F1200253
:100E400020FA04F001FA02F340EA030021FA04F365
:100E500045EA030130BDC4F10C04C4F1200220FABC
:100E600002F001FA04F340EA0300294630BD21FAFA
:100E700004F0294630BD94F0000F83F4801306BFC0
:100E800081F480110134013D4EE77FEA645C18BFB4
:100E90007FEA655C29D094EA050F08BF90EA020F4B
:100EA00005D054EA000C04BF1946104630BD91EA43
:100EB000030F1EBF0021002030BD5FEA545C05D146
:100EC0004000494128BF41F0004130BD14F5800485
:100ED0003CBF01F5801130BD01F0004545F0FE41F9
:100EE00041F470014FF0000030BD7FEA645C1ABF2E
:100EF000194610467FEA655C1CBF0B46024650EA65
:100F0000013406BF52EA033591EA030F41F4002190
:100F100030BD00BF90F0000F04BF0021704730B516
:100F20004FF4806404F132044FF000054FF00001EB
:100F300050E700BF90F0000F04BF0021704730B5AC
:100F40004FF4806404F1320410F0004548BF404281
:100F50004FF000013EE700BF42004FEAE2014FEAD6
:100F600031014FEA02701FBF12F07F4393F07F4FB1
:100F700081F06051704792F0000F14BF93F07F4FE3
:100F8000704730B54FF4607401F0004521F0004126
:100F900020E700BF50EA010208BF704730B54FF0AC
:100FA00000050AE050EA010208BF704730B511F0B1
:100FB000004502D5404261EB41014FF4806404F1E9
:100FC00032045FEA915C3FF4DCAE4FF003025FEA6B
:100FD000DC0C18BF03325FEADC0C18BF033202EBF3
:100FE000DC02C2F1200300FA03FC20FA02F001FA4D
:100FF00003FE40EA0E0021FA02F11444C1E600BFEC
:1010000070B54FF0FF0C4CF4E06C1CEA11541DBF9E
:101010001CEA135594EA0C0F95EA0C0F00F0DEF869
:101020002C4481EA030621EA4C5123EA4C5350EA4E
:10103000013518BF52EA033541F4801143F480139F
:1010400038D0A0FB02CE4FF00005E1FB02E506F030
:101050000042E0FB03E54FF00006E1FB03569CF085
:10106000000F18BF4EF0010EA4F1FF04B6F5007F8B
:1010700064F5407404D25FEA4E0E6D4146EB0606FD
:1010800042EAC62141EA55514FEAC52040EA5E5086
:101090004FEACE2EB4F1FD0C88BFBCF5E06F1ED830
:1010A000BEF1004F08BF5FEA500E50F1000041EB67
:1010B000045170BD06F0004646EA010140EA020014
:1010C00081EA0301B4EB5C04C2BFD4EB0C0541EA36
:1010D000045170BD41F480114FF0000E013C00F34B
:1010E000AB8014F1360FDEBF002001F0004170BD6F
:1010F000C4F10004203C35DA0C341BDC04F1140488
:10110000C4F1200500FA05F320FA04F001FA05F213
:1011100040EA020001F0004221F0004110EBD370E0
:1011200021FA04F642EB06015EEA430E08BF20EA0C
:10113000D37070BDC4F10C04C4F1200500FA04F3AF
:1011400020FA05F001FA04F240EA020001F0004141
:1011500010EBD37041F100015EEA430E08BF20EAB4
:10116000D37070BDC4F1200500FA05F24EEA020EFC
:1011700020FA04F301FA05F243EA020321FA04F02B
:1011800001F0004121FA04F220EA020000EBD370E2
:101190005EEA430E08BF20EAD37070BD94F0000FE2
:1011A0000FD101F00046400041EB010111F4801F16
:1011B00008BF013CF7D041EA060195F0000F18BFC7
:1011C000704703F00046520043EB030313F4801F03
:1011D00008BF013DF7D043EA0603704794EA0C0FBD
:1011E0000CEA135518BF95EA0C0F0CD050EA4106D3
:1011F00018BF52EA4306D1D181EA030101F0004150
:101200004FF0000070BD50EA410606BF1046194677
:1012100052EA430619D094EA0C0F02D150EA013683
:1012200013D195EA0C0F05D152EA03361CBF1046C4
:1012300019460AD181EA030101F0004141F0FE4163
:1012400041F470014FF0000070BD41F0FE4141F4E7
:10125000780170BD70B54FF0FF0C4CF4E06C1CEAE7
:1012600011541DBF1CEA135594EA0C0F95EA0C0F9C
:1012700000F0A7F8A4EB050481EA030E52EA033557
:101280004FEA013100F088804FEA03334FF0805578
:1012900045EA131343EA12634FEA022245EA1115A5
:1012A00045EA10654FEA00260EF000419D4208BF56
:1012B000964244F1FD0404F5407402D25B084FEA03
:1012C0003202B61A65EB03055B084FEA32024FF4AF
:1012D00080104FF4002CB6EB020E75EB030E22BF0C
:1012E000B61A754640EA0C005B084FEA3202B6EBCC
:1012F000020E75EB030E22BFB61A754640EA5C007B
:101300005B084FEA3202B6EB020E75EB030E22BF0A
:10131000B61A754640EA9C005B084FEA3202B6EB0B
:10132000020E75EB030E22BFB61A754640EADC00CA
:1013300055EA060E18D04FEA051545EA16754FEA2C
:1013400006164FEAC30343EA52734FEAC2025FEA4A
:101350001C1CC0D111F4801F0BD141EA00014FF0D9
:1013600000004FF0004CB6E711F4801F04BF0143AA
:101370000020B4F1FD0C88BFBCF5E06F3FF6AFAEC6
:10138000B5EB030C04BFB6EB020C5FEA500C50F156
:10139000000041EB045170BD0EF0004E4EEA1131D9
:1013A00014EB5C04C2BFD4EB0C0541EA045170BDE0
:1013B00041F480114FF0000E013C90E645EA060E24
:1013C0008DE60CEA135594EA0C0F08BF95EA0C0F52
:1013D0003FF43BAF94EA0C0F0AD150EA01347FF49A
:1013E00034AF95EA0C0F7FF425AF104619462CE771
:1013F00095EA0C0F06D152EA03353FF4FDAE1046D4
:10140000194622E750EA410618BF52EA43067FF424
:10141000C5AE50EA41047FF40DAF52EA43057FF4B4
:10142000EBAE12E70000000000000000000000002A
:101430004FF0FF3C06E000BF4FF0010C02E000BFA0
:101440004FF0010C4DF804CD4FEA410C7FEA6C5C83
:101450004FEA430C18BF7FEA6C5C1BD001B050EA26
:10146000410C0CBF52EA430C91EA030F02BF90EA11
:10147000020F0020704710F1000F91EA030F58BFD0
:10148000994208BF90422CBFD8176FEAE37040F032
:10149000010070474FEA410C7FEA6C5C02D150EAD0
:1014A000013C07D14FEA430C7FEA6C5CD6D152EA8B
:1014B000033CD3D05DF8040B704700BF8446104650
:1014C00062468C461946634600E000BF01B5FFF74F
:1014D000B7FF002848BF10F1000F01BD4DF808ED1F
:1014E000FFF7F4FF0CBF012000205DF808FB00BFF0
:1014F0004DF808EDFFF7EAFF34BF012000205DF84A
:1015000008FB00BF4DF808EDFFF7E0FF94BF012096
:1015100000205DF808FB00BF4DF808EDFFF7CEFF97
:1015200094BF012000205DF808FB00BF4DF808EDD6
:10153000FFF7C4FF34BF012000205DF808FB00BFA7
:101540004FEA410212F5001215D211D56FF47873EB
:10155000B3EB625212D94FEAC12343F0004343EA8E
:10156000505311F0004F23FA02F018BF4042704769
:101570004FF00000704750EA013005D111F00040F3
:1015800008BF6FF0004070474FF00000704700BF89
:101590004A0011D212F5001211D20DD56FF47873F2
:1015A000B3EB62520ED44FEAC12343F0004343EA47
:1015B000505323FA02F070474FF00000704750EA92
:1015C000013002D14FF0FF3070474FF000007047FC
:1015D0004FEA4102B2F1E04324BFB3F5001CDCF155
:1015E000FE5C0DD901F0004C4FEAC0024CEA50708D
:1015F000B2F1004F40EB830008BF20F001007047BC
:1016000011F0804F21D113F13872BCBF01F00040BE
:10161000704741F480114FEA5252C2F11802C2F1F0
:10162000200C10FA0CF320FA02F018BF40F0010071
:101630004FEAC1234FEAD32303FA0CFC40EA0C0023
:1016400023FA02F34FEA4303CCE77FEA625307D160
:1016500050EA01331EBF4FF0FE4040F44000704797
:1016600001F0004040F0FE4040F40000704700BF31
:10167000704700BFAFF30080AFF30080AFF300808E
:10168000FEE700BFAFF30080AFF30080AFF3008050
:10169000FEE700BFAFF30080AFF30080AFF3008040
:1016A000FEE700BFAFF30080AFF30080AFF3008030
:1016B000234B244A2448F0B500249C60DF68234E65
:1016C000234D4FF6FF0139400A43DA60F26842F0D9
:1016D0008072F2600268202142F00102102602604E
:1016E00083B0DE7783F8221000F00AFB00F058FA8E
:1016F00000F066FF02F034FE02F09AFE00F028FAD5
:101700004021284600F084FCA5F58867114BC36191
:10171000012680F82060B86100F062F984F3118836
:1017200062B6BB690C4A9A6105F1500032460094DA
:10173000E0210A4B00F0ECFC094B836103B0F0BDE3
:1017400000ED00E00003FA05001000E0F0ED00E01D
:101750009017002000040020E03A0408A1160008B9
:1017600030390408AFF30080AFF30080AFF300809E
:1017700008B5044601BE72B639F05AFB014BDC6273
:10178000FEE700BF50130020AFF30080AFF30080EE
:1017900010B5044600F0BCF9E20713D52B4A1168D6
:1017A000914247D000230968914203F10103FAD125
:1017B000486888423CD04068904203F1FF33FAD138
:1017C000002B35D1A30714D5204A104650F81C1F12
:1017D000814235D000230968814203F10103FAD127
:1017E000126A8A4224D05268824203F1FF33FAD14E
:1017F000F3B914F004001AD0144A1369934211D0BB
:1018000000201B69934200F10100FAD15969994205
:101810000ED04969914200F1FF30FAD1003018BF73
:10182000012010BD596999424FF00000F1D110BD5F
:10183000012010BD5068904218BF0023BBD1C1E702
:10184000126A824218BF0023CDD1D2E75013002084
:101850002DE9F047254D4FF0804800F059F900F090
:1018600057F9EC69A96AD8F82400A368421A9A4289
:1018700005F11C0A1ED300264FF020092268E768F4
:101880000B445245AB62C2F804A0EA61E66026D080
:1018900000F0F6F886F311882069B84789F31188BB
:1018A00000F0D6F8EC69D8F82400A96AA368421AB7
:1018B0009342E3D9544510D00B441B1A012B98BF17
:1018C00002231C18204602F0E3FF4FF08043A96A70
:1018D0005A6A631A521A9A4204D8BDE8F08702F095
:1018E000CFFFD5E70248FFF743FF00BF50130020AA
:1018F00020390408AFF30080AFF30080AFF300801D
:1019000010B5EFF312844CB9EFF30583C3F308036A
:1019100033B9202383F3118800F072F8204610BDFC
:10192000202383F3118800F093F8204610BD00BFF8
:10193000E0B910B50446EFF30583C3F3080383B998
:1019400000F046FB00F06CF80A4B1A689A4204D08B
:10195000996993688A689A4209D3002383F31188AE
:1019600010BD00F08DF884F3118810BD7047024857
:10197000FFF7FEFE5013002040390408AFF300804B
:10198000034A516853685B1A9842FBD8704700BFFE
:10199000001000E0AFF30080AFF30080AFF30080F1
:1019A000044B1A6B0AB95B6B13B10348FFF7E0BE37
:1019B000704700BF5013002050390408AFF3008077
:1019C000044B1A6B0AB95B6B13B10348FFF7D0BE27
:1019D000704700BF5013002058390408AFF300804F
:1019E000044B1A6B0AB95B6B13B10348FFF7C0BE17
:1019F000704700BF5013002060390408AFF3008027
:101A000010B5054C236B0BB9636B13B10348FFF79B
:101A1000AFFE0123636310BD501300206839040832
:101A200010B5074C236B2BB9636B002B02DD002331
:101A3000636310BD0348FFF79BFE0023636310BD83
:101A40005013002070390408AFF30080AFF300801A
:101A500010B5064C236B002B01DD636B13B10448FA
:101A6000FFF786FE0123636310BD00BF5013002003
:101A700078390408AFF30080AFF30080AFF3008043
:101A800010B5084C236B002B05DD636B002B02DDCA
:101A90000023636310BD0448FFF76AFE00236363FD
:101AA00010BD00BF5013002080390408AFF3008040
:101AB00010B5202383F31188074C236B002B01DB27
:101AC000626B1AB10548FFF753FE236B01332363A2
:101AD000002383F3118810BD5013002088390408B7
:101AE00010B5202383F31188074C236B002B01DDF5
:101AF000626B1AB10548FFF73BFE236B013B236382
:101B0000002383F3118810BD50130020903904087E
:101B1000054B1A6B002A03DB5B6B002B00DD704763
:101B20000248FFF725BE00BF501300209839040873
:101B3000044B1A6B1AB95B6B002B00DD704702482F
:101B4000FFF716BE50130020A0390408AFF3008041
:101B5000024B40215A189963DA63704750130020F2
:101B60000C4A4FF08041D36B10B44C6A91695960B4
:101B70001C60416A996090F820101973103302F5C7
:101B800088618B4228BF02F14003D3635DF8044BA8
:101B9000704700BF50130020AFF30080AFF3008008
:101BA000054B4FF0FF3003F11C020021586299628F
:101BB000DA611A62704700BF50130020AFF3008053
:101BC0002DE9F04105460E4614469846FFF7A0FF62
:101BD000002D2DD064B35EB31E4FC5F810803B4678
:101BE000012E53F81C1FEC604FF0804298BF022674
:101BF0009942506A23D0BC6A8B683044041B9C42D3
:101C00001AD3FB699A68944204D91B68A41A9A688B
:101C1000A242FAD35A686A602B6015605D60AC60BE
:101C20009A684FF0FF31141B9C607962BDE8F08127
:101C30000948FFF79DFDCFE702F02AFEE1E7B86211
:101C4000FD613D62304429606960AE60BDE8F041ED
:101C500002F0FEBD50130020B0390408AFF300803D
:101C600010B50446FFF754FF002C33D0E368002B77
:101C700034D01E4BDA69A2420FD0616822680A6034
:101C800022681C3300209A425160E06004D0A368AF
:101C900091680B44936010BD10BD1A46216842F84C
:101CA0001C1F002091424A60E0601BD0A0688A6837
:101CB0009C6A83184FF080428B60506A021B9342EB
:101CC000EAD99B1A012B98BF02231844BDE81040A3
:101CD00002F0DEBD0648FFF74BFDC7E70448FFF7FB
:101CE00047FDC6E7BDE8104002F0CABD5013002012
:101CF000C0390408AFF30080AFF30080AFF3008079
:101D0000034B00221B605B601B615B619A60704744
:101D100050130020AFF30080AFF30080AFF30080DA
:101D200010B50446FFF7F4FEC4B194F820308BB12F
:101D30000F2B0FD00022A1680A4B84F820201B68CB
:101D40009A688A42FBD25A68626023602046146017
:101D50005C6010BD0448FFF70BFDEBE70248FFF79E
:101D600007FDE2E750130020D0390408AFF30080EC
:101D700038B50446202383F31188FFF769FE94F8F1
:101D80002030072B10D8DFE803F0150F0F1B0A04D3
:101D90000F0A656AFFF7BCFEAB680133AB6094E8DD
:101DA0000C001A60226853604FF0FF3363622046D4
:101DB000FFF7B6FFFFF764FE002383F3118838BDF9
:101DC000636A00221A604FF0FF3363622046FFF718
:101DD000A7FFEFE7AFF30080AFF30080AFF3008021
:101DE00070B5104C0646FFF7A3FE2368A5691A6874
:101DF00085F8206001215460284683F82010226075
:101E0000A361FFF7ADFEEFF30983EA69243B9A4231
:101E100002D90548FFF7ACFCA0692946BDE870402F
:101E2000FEF72EBA50130020E0390408AFF300800B
:101E300070B50C4686B00646FFF77AFE631C14D0D8
:101E40000E4D0F4AAB69214601A8FFF7B9FE304697
:101E5000FFF7C6FFFFF75CFE049B13B101A8FFF775
:101E6000FFFEAB69586A06B070BD044D3046FFF7FF
:101E7000B7FFAB69586A06B070BD00BF50130020B1
:101E8000711D0008AFF30080AFF30080AFF3008056
:101E900070B5174D04460E46FFF74AFEA869A268C2
:101EA000836866629A4214D9FFF73AFF012384F8E7
:101EB00020300646AC61FFF753FEEFF30983F26969
:101EC000243B9A420AD820463146BDE87040FEF7CE
:101ED000D7B92046BDE87040FFF722BF0548FFF79D
:101EE00047FC20463146BDE87040FEF7C9B900BF47
:101EF00050130020E0390408AFF30080AFF30080F6
:101F0000044B1A689B6990689B68984294BF0020B4
:101F10000120704750130020AFF30080AFF3008022
:101F200038B50F4C2368A5691A68226001215460F6
:101F3000284683F82010A361FFF7F2FE2846FFF73A
:101F40000FFEEFF30983EA69243B9A4202D9054860
:101F5000FFF70EFCA0692946BDE83840FEF790B9AE
:101F600050130020E0390408AFF30080AFF3008085
:101F700070B5154D2A68AC691368A0682B600126FE
:101F800000215D6082F82060AA6184F8201000E0E2
:101F90001B689A688242FBD85A68626023602046B8
:101FA00014605C60FFF7DCFDEFF30983E269243B1A
:101FB0009A4202D90548FFF7DBFBA8692146BDE834
:101FC0007040FEF75DB900BF50130020E0390408EF
:101FD00008B5FFF7ADFDFFF79BFD064B1A689B693F
:101FE00092689B689A4200D808BDBDE80840FFF798
:101FF000BFBF00BF50130020AFF30080AFF30080DD
:10200000FFF7B6BFAFF30080AFF30080AFF30080FF
:102010002DE9F041114C016466694661002200F12E
:102020002C054FF002084FF0010C00F1280E00F1D2
:1020300048078160046180F8208080F822C080F821
:102040002120C2638263826130616061C0F828E050
:10205000C761C5620563BDE8F08100BF5013002071
:10206000884203D200F8012B8842FBD1704700BFA1
:102070002DE9F84F04460D4690469946FFF748FD76
:102080000CB1CF2D36D81F48FFF772FB1E4F0A98B0
:102090007E69DFF878E0A5F1240104EB010B002351
:1020A0004FF0020A4FF0010CC4F80CB004F12C02FE
:1020B00044F8019004F12805CBF80400CBF820E0A7
:1020C00004F1480184F820A084F8213084F822C06B
:1020D000C4F8088027616661C4F84080E363A363A5
:1020E000A361204634617C61A562E2622263E16102
:1020F000BDE8F88FB8F17F0FC5D8B9F1000FC5D191
:10210000C1E700BF003A0408501300209102000804
:102110002DE9F04F83B080460C9F894692469B463E
:1021200000F148050446FF2604F8016BA542FBD1E7
:1021300008EB0904A54238BF552603D205F8016B08
:10214000A542FBD1202383F31188FFF759FC5246A7
:102150005B46494600974046FFF78AFF0021044648
:10216000FFF796FEFFF75CFC094B1A689A4207D00E
:10217000996993688A689A4202D20648FFF7F8FA8A
:10218000002383F31188204603B0BDE8F08F00BF21
:1021900050130020303A0408AFF30080AFF3008002
:1021A00010B52023044683F31188FFF729FC94F827
:1021B0002030022B02D00D48FFF7DAFA2046FFF755
:1021C000AFFD0446FFF72CFC094B1A689A4207D072
:1021D000996993688A689A4202D20648FFF7C8FA5A
:1021E000002383F31188204610BD00BFF039040896
:1021F00050130020303A0408AFF30080AFF30080A2
:102200007F2870B5044623D8202383F31188124D0C
:10221000FFF7F6FBAB691E6C9A68964201D09442B8
:1022200000D99C601C64FFF7D3FEFFF7F9FB2B6815
:10223000094AAB4207D092699B6892689A4202D2DF
:102240000648FFF795FA002383F31188304670BDE6
:102250000348FFF78DFAD7E750130020303A0408FF
:10226000403A0408AFF30080AFF30080AFF3008082
:1022700010B52023044683F31188FFF7C1FB94F8BF
:10228000213043F0040384F82130FFF7C9FB084BE9
:102290001A689A4207D0996993688A689A4202D26A
:1022A0000448FFF765FA002383F3118810BD00BFCF
:1022B00050130020303A0408AFF30080AFF30080E1
:1022C00010B52023044683F31188FFF799FB14B956
:1022D0000C48FFF74DFA21460820FFF7A9FDFFF74C
:1022E0009FFB094B1A689A4207D0996993688A68DC
:1022F0009A4202D20548FFF73BFA002383F3118884
:1023000010BD00BF603A040850130020303A0408A2
:1023100010B52023044683F31188FFF771FB4FF0BB
:102320008043596A611A02D00820FFF781FDFFF748
:1023300077FB084B1A689A4207D0996993688A68B4
:102340009A4202D20448FFF713FA002383F311885C
:1023500010BD00BF50130020303A0408AFF30080D6
:1023600010B5202383F31188104CFFF749FBFFF7CA
:10237000DFFBFFF7DDFB2268A36992689B689A4246
:1023800001D3FFF7CDFDFFF74BFB2368074AA342BC
:1023900007D092699B6892689A4202D20448FFF77C
:1023A000E7F9002383F3118810BD00BF501300200C
:1023B000303A0408AFF30080AFF30080AFF3008041
:1023C00038B5104B9C69A36A606204F128059D42F0
:1023D00007D01A68A2621846FFF7A2FCA36AAB42B4
:1023E000F7D194F821309B0704D1636922691A61FF
:1023F000226953610F20FFF7F3FC0348BDE8384022
:10240000FFF7B6B950130020103A0408AFF300806C
:1024100010B52023044683F31188FFF7F1FA204614
:10242000BDE81040FFF7CCBFAFF30080AFF30080F2
:1024300070B50446002835D0202383F311881B4D46
:10244000FFF7DEFAAB69A34228D094F822300BB331
:1024500094F820300F2B06D0AB69A26A1A600920CD
:10246000A362FFF7BDFC666AFFF7DAFA2B680F4A32
:10247000AB4207D092699B6892689A4202D20C489C
:10248000FFF776F9002383F31188204600F0E8F87F
:10249000304670BD0748FFF76BF9D9E70548FFF7ED
:1024A00067F9D2E70348FFF763F9C5E75013002047
:1024B000303A0408203A0408AFF30080AFF30080FC
:1024C00069B1084B10B4024644689B69042083E854
:1024D0001400236053605DF8044BFFF7A9BC4FF074
:1024E000FF30704750130020AFF30080AFF300803F
:1024F00038B50468A04210D02368036094F8202007
:102500005860042A0D4602D00448FFF731F965628D
:102510002046BDE83840FFF703BC38BD703A0408D8
:1025200070B50468A04205460E4610D023682B60A3
:1025300094F8202006485D60042A01D0FFF718F9BE
:1025400066622046FFF7ECFB2C68A542EED170BD19
:10255000703A0408AFF30080AFF30080AFF300805F
:10256000014B5B6883607047001000E0AFF30080B0
:102570000F4B10495A688368F0B4D1F88874C66864
:102580004168D0E90445D31ADB1BE41845F1000586
:1025900001368B42C6608360C0E9044505D80268F5
:1025A000934238BF0360F0BC70474360F0BC704793
:1025B000001000E050130020AFF30080AFF3008064
:1025C000D0B50D4C86B000234FF0FF326846002690
:1025D0000027C4F888340193029303930092CDE955
:1025E0000467FFF7BDFF6846FFF7C2FF029BC4F810
:1025F000883406B0D0BD00BF50130020AFF3008078
:1026000010B52023044683F31188FFF7F9F994F8F5
:102610002230FF2B15D0013384F82230FFF700FA67
:102620000B4B1A689A4207D0996993688A689A4254
:1026300002D20848FFF79CF8002383F31188204654
:1026400010BD0548FFF794F894F82230E3E700BF87
:1026500050130020C03A0408903A0408AFF30080F9
:1026600038B50546202383F31188FFF7C9F995F89B
:1026700022301BB3013BDCB285F82240FFF7D0F9D2
:102680001C4B1A689A4207D0996993688A689A42E3
:1026900002D21948FFF76CF8002383F311881CB9A4
:1026A00095F820300F2B00D038BD95F8213003F07D
:1026B0000303012B08D0022B10D038BD0F48FFF7C1
:1026C00057F895F82230D5E76B692A691A612A69AB
:1026D00028465361BDE8384001F022BF6B692A6982
:1026E0001A612A69686C53612946BDE8384002F0D6
:1026F0000FB800BF50130020C03A0408D03A0408B5
:102700002DE9F04182B090461F460D4601F0C0FE13
:10271000044680B300F148063146FF22FFF7A0FCD3
:10272000304661195522FFF79BFC202383F3118863
:10273000FFF766F9089B00934246204629463B4630
:10274000FFF796FC012380F8213000210446FFF7B3
:102750009FFBFFF765F9094B1A689A4207D0996900
:1027600093688A689A4202D20548FFF701F800236D
:1027700083F31188204602B0BDE8F0815013002099
:10278000C03A0408AFF30080AFF30080AFF30080DD
:102790002DE9F043884683B0174699460546002840
:1027A0003AD0284601F074FF044690B300F1480681
:1027B0003146FF22FFF754FC696830462144552218
:1027C000FFF74EFC202383F31188FFF719F94246E7
:1027D0006968CDF8009020463B46FFF749FC02238C
:1027E00080F82130456400210446FFF751FBFFF7D4
:1027F00017F90B4B1A689A4207D0996993688A684F
:102800009A4202D20748FEF7B3FF002383F31188F0
:10281000204603B0BDE8F0830348FEF7A9FFC0E7F8
:1028200050130020C03A0408A03A0408AFF3008017
:1028300038B5202383F311880D4CFFF7E1F82569A3
:1028400095F82230013385F82230FFF7E9F8236844
:10285000A34207D0A2699B6892689A4202D20548B7
:10286000FEF786FF002383F31188284638BD00BF9A
:1028700050130020103B0408AFF30080AFF300803A
:1028800070B52023064683F31188FFF7B9F8144D7D
:102890003469AC4222D094F82230FF2B18D0013397
:1028A00084F82230FFF7BCF82B680D4AAB4207D002
:1028B00092699B6892689A4202D20A48FEF758FFD2
:1028C000002383F311883046FFF7CAFE204670BD0F
:1028D0000548FEF74DFF94F82230E0E70024E1E7D9
:1028E00050130020103B0408003B0408AFF30080A5
:1028F00038B50D46044628B1002903DB2460646026
:10290000A56038BD0348FEF733FF24606460A5600E
:1029100038BD00BF303B0408AFF30080AFF3008048
:1029200070B504460E46FFF7F3F8FCB1002E1DDB30
:10293000A5682368002D16DB9C4203D00D48FEF7E6
:1029400017FFA568A6600135002D0BDC6FF00106AE
:102950006068436863601C60FFF7E2F90135012D90
:102960004662F5D170BD9C42ECD1E7E70148FEF725
:10297000FFFEDDE7403B0408AFF30080AFF30080CB
:1029800038B505460C46202383F31188FFF738F845
:1029900028462146FFF7C4FFFFF71AFBFFF740F870
:1029A000074B1A689A4207D0996993688A689A42D5
:1029B00002D20448FEF7DCFE002383F3118838BD01
:1029C00050130020603B0408AFF30080AFF3008099
:1029D00038B50446FFF7ACF81CB3A3682268002B97
:1029E0000BDB944203D01148FEF7C2FEA368013B03
:1029F000002BA36007DB002038BD9442F3D0013BDD
:102A0000002BA360F7DA0A4DAB695C6262685A601A
:102A10001C60052013606360FFF7E2F9AB69586A38
:102A200038BD0248FEF7A4FED7E700BF503B0408BC
:102A300050130020AFF30080AFF30080AFF30080AD
:102A400010B52023044683F31188FEF7D9FF2046F2
:102A5000FFF7BEFF0446FEF7E3FF084B1A689A42F1
:102A600007D0996993688A689A4202D20448FEF7AF
:102A70007FFE002383F31188204610BD50130020F1
:102A8000603B0408AFF30080AFF30080AFF3008039
:102A900038B504460D46FFF74BF824B3A368226807
:102AA000002B0BDB944203D01348FEF761FEA368B2
:102AB0005A1E002AA26007DB002038BD9442F3D0E2
:102AC0005A1E002AA260F7DA8DB10C4B9B695C623A
:102AD00062685A601C602946136005206360BDE887
:102AE0003840FFF7A5B90448FEF742FED6E7A360D9
:102AF0004FF0FF3038BD00BF803B0408501300206A
:102B000038B505460C46202383F31188FEF778FF7D
:102B100021462846FFF7BCFF0446FEF781FF084B1D
:102B20001A689A4207D0996993688A689A4202D2D1
:102B30000448FEF71DFE002383F31188204638BDAC
:102B400050130020603B0408AFF30080AFF3008017
:102B500010B5044678B3A368002B236820DB9C42A1
:102B600002D01748FEF704FE202383F31188FEF7F6
:102B700047FFA3680133002BA36014DDFEF750FF6D
:102B8000104B1A689A4207D0996993688A689A42EA
:102B900002D20D48FEF7ECFD002383F3118810BD2F
:102BA0009C42E1D1DDE720680368236000215C607E
:102BB000FFF76EF9E2E70248FEF7DAFDCBE700BF68
:102BC000703B040850130020603B0408AFF3008002
:102BD00010B50446FEF79CFFFCB1A3682268002BE9
:102BE0000ADB944203D00F48FEF7C2FDA36801330D
:102BF000002BA36006DD10BD9442F4D00133002BFE
:102C0000A360F8DC23681A682260002154605962CE
:102C10001846BDE81040FFF783B80248FEF7A8FD4C
:102C2000DBE700BFA03B0408AFF30080AFF30080F8
:102C300070B505460C46FEF76BFF15B3002C20DD82
:102C4000AB68002B2B6819DB9D4202D00F48FEF7C2
:102C50008FFD002C11DD002601E0013C0DD0AB689A
:102C60000133002BAB60F8DC286803682B605D60E3
:102C7000FFF756F8013C4662F1D170BD9D42E8D1A4
:102C8000E4E70248FEF774FDDAE700BFB03B040852
:102C900070B50C46054600283FD000293DD0AB68F2
:102CA000002B2B6836DB9D4202D02948FEF760FDE1
:102CB000A368002B23682ADB9C4202D02448FEF73D
:102CC00057FD202383F31188FEF79AFEAB6801338A
:102CD000002BAB6032DDA368013B002BA36020DB3F
:102CE000FFF776F91B4D0024FEF79AFE2B68194A70
:102CF000AB4207D092699B6892689A4202D216480A
:102D0000FEF736FD002383F31188204670BD9C42F8
:102D1000D7D1D3E79D42CBD1C7E70D48FEF728FDB9
:102D2000BDE70C4D6368AE690520346073601E60BA
:102D300066607462FFF754F8746AD5E72868036820
:102D40002B605D60FEF7ECFF00234362C3E700BF2A
:102D5000203B040850130020603B0408AFF30080C0
:102D600010B5044620B1002324606460A36010BD48
:102D70000148FEF7FDFCF6E7D03B0408AFF3008006
:102D80003B4B70B505469C69FEF7D2FE002D6BD01B
:102D9000A868002836D0A26883689A4207D990F8BC
:102DA00020308260062B46D0072B30D0FBB12B465B
:102DB00003E09968A268914202D31B689D42F8D152
:102DC0005A6862602360062014605C606562FFF7E9
:102DD00007F8AB68A34202D02648FEF7C9FCE36BB4
:102DE000AB4213D02348BDE87040FEF7C1BC90E869
:102DF0000C00012180F820101A6002685360FEF771
:102E00008FFFD4E7E36BEB60AC60E56370BD90E8E7
:102E10000A001960466A01684B60334602E099680F
:102E2000914202D31B689E42F9D15A684260036006
:102E300010605860BBE790E80A001960466A0168B4
:102E40004B60334602E09968914202D31B689E4270
:102E5000F9D15A684260036010605860B068A26897
:102E6000836893429BD3A2E70248FEF781FC8FE779
:102E700050130020E03B0408AFF30080AFF3008064
:102E800010B52023044683F31188FEF7B9FD2046D0
:102E9000FFF776FFFEF7C4FD074B1A689A4207D08A
:102EA000996993688A689A4202D20448FEF760FCE6
:102EB000002383F3118810BD50130020003C040848
:102EC00010B50446FEF734FE5CB1A3680BB10020D8
:102ED00010BD064B9B69A360DA6BE2600120DC63E6
:102EE00010BD0348FEF744FCEFE700BF501300207D
:102EF000F03B0408AFF30080AFF30080AFF3008035
:102F000010B52023044683F31188FEF779FD20468F
:102F1000FFF7D6FF0446FEF783FD084B1A689A4276
:102F200007D0996993688A689A4202D20448FEF7EA
:102F30001FFC002383F31188204610BD501300208E
:102F4000003C0408AFF30080AFF30080AFF30080D3
:102F50002DE9F041DFF8BC800646D8F8187000284B
:102F60004DD0202383F31188FEF74AFDFB6B002B25
:102F700049D09A68BA4203D02548FEF7F9FBFB6BAB
:102F80009E4202D02248FEF7F3FBF368FB63FEF794
:102F9000CFFD33689E422FD0FC6B3D6C64B1FEF7D1
:102FA000C7FD23689C4203D09B689D4238BF1D46E5
:102FB000E468002CF3D133681A68DC6BBD601846F6
:102FC000326000215660B360F460DE63FEF760FF9C
:102FD000FEF726FDD8F800300E4A434507D0926927
:102FE0009B6892689A4202D20B48FEF7C1FB00230D
:102FF00083F31188BDE8F0810023B360E8E704485B
:10300000FEF7B6FBADE70248FEF7B2FBFB6BB0E79D
:10301000103C040850130020003C0408AFF300806B
:10302000F8B5234B06469F69FEF782FD002E35D08A
:10303000FB6B002B36D09A68BA4203D01D48FEF7CE
:1030400097FBFB6B9E4202D01A48FEF791FBF36898
:10305000FB63FEF76DFD33689E421CD0FC6B3D6C3C
:1030600064B1FEF765FD23689C4203D09B689D42D6
:1030700038BF1D46E468002CF3D133681A68D96B59
:10308000BD60184632605660B360F160DE63BDE833
:10309000F840FEF745BE0023B360F8BD0548FEF7D3
:1030A00067FBC5E70348FEF763FBFB6BC3E700BFA5
:1030B00050130020203C0408AFF30080AFF30080E1
:1030C000F8B51C4E2023B56983F31188FEF798FCF0
:1030D000EC6BE4B100270AE01A68D96B22605460F7
:1030E000A360E160DC63FEF71BFEEC6B5CB1E368A0
:1030F000EB63FEF71DFD23689C421846ECD1A760E8
:10310000EC6B002CF3D12B6CAB60FEF761FFFEF78C
:1031100087FC3368074AB34207D092699B6892687C
:103120009A4202D20448FEF723FB002383F311885E
:10313000F8BD00BF50130020003C0408AFF300802E
:1031400010B5044610B12460646010BD0248FEF75B
:103150000FFB2460646010BD503C0408AFF3008096
:1031600010B50446F8B1202383F31188FEF748FC1C
:103170002068A04205D00368236000215C60FEF750
:1031800087FEFEF74DFC0A4B1A689A4207D09969F0
:1031900093688A689A4202D20648FEF7E9FA002349
:1031A00083F3118810BD0448FEF7E2FADBE700BFA5
:1031B00050130020A03C0408403C0408AFF30080FA
:1031C00010B50446FEF7A4FC6CB123689C4209D0FC
:1031D0001A6822600021546059621846BDE8104008
:1031E000FEF79EBD10BD0248FEF7C2FAEDE700BF34
:1031F000703C0408AFF30080AFF30080AFF30080B1
:1032000038B50446FEF784FC74B1206884420AD0C5
:103210006FF00105036823605C60FEF781FD456285
:103220002068A042F6D138BD0148FEF7A1FAECE7CC
:10323000803C0408AFF30080AFF30080AFF3008060
:1032400010B52023044683F31188FEF7D9FB2046EE
:10325000FFF7D6FFFEF7BCFEFEF7E2FB074B1A684E
:103260009A4207D0996993688A689A4202D20448C0
:10327000FEF77EFA002383F3118810BD501300205F
:10328000A03C0408AFF30080AFF30080AFF30080F0
:1032900070B5164E0546B469FEF74AFCF5B1E36B0E
:1032A00003B3B369DE6B3046FFF7BAFE65622B46A7
:1032B00003E09968A268914202D31B689D42F8D14D
:1032C0005A6862602360072014605C60FEF788FD26
:1032D000646A3046FFF754FD204670BD0448FEF78F
:1032E00047FADCE70248FEF743FADAE7501300201A
:1032F000303C0408AFF30080AFF30080AFF30080F0
:1033000010B52023044683F31188FEF779FB20468D
:10331000FFF7BEFF0446FEF783FB084B1A689A428C
:1033200007D0996993688A689A4202D20448FEF7E6
:103330001FFA002383F31188204610BD501300208C
:10334000A03C0408AFF30080AFF30080AFF300802F
:10335000F8B505460F46FEF7EBFB1DB317B3164C49
:10336000A369DE6B16B33046FFF75AFEA4692B46FD
:10337000656203E09968A268914202D31B689D428E
:10338000F8D15A68626023603946146007205C6097
:10339000FEF74EFD431C044602D03046FFF7F0FC1A
:1033A0002046F8BD0548FEF7E3F9D8E70348FEF7E5
:1033B000DFF9A369DE6BD6E750130020B03C0408A8
:1033C00038B505460C46202383F31188FEF718FB19
:1033D00021462846FFF7BCFF0446FEF721FB084BB9
:1033E0001A689A4207D0996993688A689A4202D209
:1033F0000448FEF7BDF9002383F31188204638BD49
:1034000050130020A03C0408AFF30080AFF300800D
:103410002DE9F0410C4690461F46064610B309B30D
:10342000202383F31188114DFEF7EAFA3368AA6965
:10343000236000233460E3606260C4F80880276181
:10344000FEF7EEFA2B68AB4207D0AA699B68926838
:103450009A4202D20648FEF78BF9002383F31188C3
:10346000BDE8F0810348FEF783F9D9E75013002047
:10347000303D0408E03C0408AFF30080AFF3008067
:1034800038B50D46044610B309B3202383F31188E1
:10349000FEF7B6FA224602E09D4215D01A4613689E
:1034A000A342F9D1FEF7BCFA0B4B1A689A4207D037
:1034B000996993688A689A4202D20848FEF758F9D7
:1034C000002383F3118838BD2B681360EAE70448B2
:1034D000FEF74EF9D9E700BF50130020303D040835
:1034E000003D0408AFF30080AFF30080AFF300802D
:1034F00038B50446202383F311880D4DFEF780FA7A
:10350000AA69936B23EA040191631C40FEF788FAD1
:103510002B68AB4207D0AA699B6892689A4202D294
:103520000448FEF725F9002383F31188204638BDAF
:1035300050130020303D0408AFF30080AFF300804B
:1035400038B50446202383F311880C4DFEF758FA52
:10355000AA69936B1C439463FEF762FA2B68AB4233
:1035600007D0AA699B6892689A4202D20448FEF783
:10357000FFF8002383F31188204638BD5013002044
:10358000303D0408AFF30080AFF30080AFF300805C
:1035900038B504460D46FEF7BBFACCB1A36B94F8E0
:1035A000202045EA03010A2AA1630DD00B2A00D08E
:1035B00038BD636A19408B42FAD10023636220460A
:1035C000BDE83840FEF7ACBB636A1942F5D138BD9F
:1035D0000148FEF7CDF8E1E7503D0408AFF3008065
:1035E00070B506460D46FEF793FA8EB13468A642D2
:1035F0000DD0E3682B43E36015B12269134203D079
:103600006068A168FFF7C4FF2468A642F1D170BDCD
:103610000148FEF7ADF8E9E7103D0408AFF300807C
:1036200038B50D460446E0B1202383F31188FEF738
:10363000E7F920462946FFF7ABFFFEF7C9FCFEF786
:10364000EFF90A4B1A689A4207D0996993688A6819
:103650009A4202D20648FEF78BF8002383F31188C2
:1036600038BD0448FEF784F8DEE700BF50130020A1
:10367000303D0408403D0408AFF30080AFF3008004
:1036800038B505460C46202383F31188FEF7B8F9B8
:1036900028462146FFF7A4FFFEF79AFCFEF7C0F983
:1036A000074B1A689A4207D0996993688A689A42C8
:1036B00002D20448FEF75CF8002383F3118838BD7A
:1036C00050130020303D0408AFF30080AFF30080BA
:1036D000F8B50E460546E0B1AEB10024012726FA42
:1036E00004F3DB070CD52B6873B107FA04F220460C
:1036F00026EA0206043598470134002EEFD1F8BDC2
:1037000001340435EBE7F8BD0448FEF731F82B68C7
:10371000EBE70248FEF72CF8DEE700BFD03C0408D8
:1037200070B5154D0446AE69202383F31188FEF76A
:1037300067F9B36B14EA030206D174620A20FEF73C
:103740004FFBB36B04EA03025442144023EA040320
:10375000B363FEF765F92B68074AAB4207D092695D
:103760009B6892689A4202D20448FEF701F800234F
:1037700083F31188204670BD50130020303D0408AB
:10378000F8B5144C0646A569202383F31188FEF78B
:1037900037F9AB6B16EA030706D16E620A20FEF713
:1037A0001FFBAB6B06EA030723EA0703AB63FEF7D5
:1037B00037F92368074AA34207D092699B68926849
:1037C0009A4202D20448FDF7D3FF002383F3118805
:1037D0003846F8BD50130020303D0408AFF3008098
:1037E00070B5144E0446B569202383F31188FEF7A3
:1037F00007F9AB6B04EA0302A24204D06C620B200F
:10380000FEF7EEFAAB6B23EA0403AB63FEF708F9AD
:103810003368084AB34207D092699B6892689A421B
:1038200002D20548FDF7A4FF002383F31188204648
:1038300070BD00BF50130020303D0408AFF300807E
:10384000F8B5254D04460F46AE69202383F3118851
:10385000FEF7D6F8B26B14EA02030AD1F7B174622C
:1038600039460A20FEF7E4FA002817DBB26B04EAB7
:1038700002035C421C4022EA0402B263FEF7D0F865
:103880002B68154AAB4204D092699B6892689A42B1
:1038900012D3002383F311882046F8BDFEF7C0F849
:1038A0002B68AB4204D0AA699B6892689A420BD3FA
:1038B000002080F31188F8BD0848FDF759FF002368
:1038C00083F311882046F8BD0448FDF751FF00201E
:1038D00080F31188F8BD00BF50130020303D04086C
:1038E0002DE9F041264D06468846AF69202383F333
:1038F0001188FEF785F8BB6B16EA03040CD1B8F10A
:10390000000F1DD07E6241460A20FEF791FA002882
:1039100016DBBB6B06EA030423EA0403BB63FEF772
:103920007FF82B68164AAB4204D092699B68926874
:103930009A4214D3002383F311882046BDE8F08116
:10394000FEF76EF82B68AB4204D0AA699B689268B8
:103950009A420DD3002080F31188BDE8F081094818
:10396000FDF706FF002383F311882046BDE8F081B0
:103970000448FDF7FDFE002080F31188BDE8F081CA
:1039800050130020303D0408AFF30080AFF30080F7
:10399000F8B5214D04460F46AE69202383F3118804
:1039A000FEF72EF8B36B04EA0302A24208D017B365
:1039B000746239460B20FEF73BFA00281BDBB36B21
:1039C00023EA0403B363FEF72BF82B68124AAB42D9
:1039D00004D092699B6892689A4204D3002383F3CF
:1039E00011882046F8BD0D48FDF7C2FE002383F381
:1039F00011882046F8BDFEF713F82B68AB4207D0BC
:103A0000AA699B6892689A4202D20448FDF7B0FE08
:103A1000002080F31188F8BD50130020303D0408C9
:103A2000F8B51B4E0F46B469054660B3202383F3F7
:103A30001188FDF7E5FF05F12C0295F82000626280
:103A40002B6B67630E2884E80C001C602C6316D077
:103A50000C20FEF7C5F9646AFDF7E2FF33680C4AF3
:103A6000B34207D092699B6892689A4202D2094891
:103A7000FDF77EFE002383F311882046F8BD28461B
:103A8000FEF74EF9E4E70448FDF772FECEE700BF0B
:103A900050130020803D0408603D0408AFF300800F
:103AA00070B5202383F31188144CFDF7A9FFA56995
:103AB000FEF72EF8EB6A2C35AB421BD0A3690F4EF4
:103AC000DD6A2A6843F82C2F0D21536085F82010F9
:103AD000FDF7A6FF2368A34207D0B2699B689268EE
:103AE0009A4202D20648FDF743FE002383F3118871
:103AF000284670BD0E20FEF773F9DFE75013002053
:103B0000803D0408AFF30080AFF30080AFF3008086
:103B100038B504460D46202383F31188FDF770FF66
:103B200094F820300D2B02D00D48FDF721FEFDF753
:103B3000FFFF20462946FEF7ABF9FDF771FF094B61
:103B40001A689A4207D0996993688A689A4202D2A1
:103B50000548FDF70DFE002383F3118838BD00BF33
:103B6000703D040850130020803D0408AFF300802E
:103B700070B50D4616460446A0B199B1002A11DD74
:103B800005EB8603314604F11C002560E560A56065
:103B90006360FEF7ADFE04F110000021BDE8704047
:103BA000FEF7A6BE0148FDF7E3FDE9E7903D0408F6
:103BB00010B50446FDF7ACFF84B123686168A360CB
:103BC000C91A04F11C00E3608910FEF7A9FE04F194
:103BD00010000021BDE81040FEF7A2BE0148FDF72D
:103BE000C7FDEAE7B03D0408AFF30080AFF3008003
:103BF00010B52023044683F31188FDF701FF20460A
:103C0000FFF7D6FFFEF7E4F9FDF70AFF074B1A6846
:103C10009A4207D0996993688A689A4202D2044806
:103C2000FDF7A6FD002383F3118810BD501300207B
:103C3000F03D0408AFF30080AFF30080AFF30080E5
:103C400070B504460E461546FDF772FFC4B129460D
:103C500004F11C00FEF71CFF054678B9A2686168F4
:103C6000131D8B42A36028BF2368166004F1100067
:103C700028BFA360FEF7ACFFFEF7AAF9284670BD87
:103C80000148FDF775FDE2E7E03D0408AFF3008071
:103C900070B5202306460D46144683F31188FDF7C0
:103CA000AFFE224629463046FFF7CAFF0446FDF71D
:103CB000B7FE084B1A689A4207D0996993688A68D8
:103CC0009A4202D20448FDF753FD002383F3118882
:103CD000204670BD50130020F03D0408AFF3008073
:103CE00038B504460D46FDF713FFCCB1FDF710FFC4
:103CF000636A002B18DDFDF70BFFA168636A60683B
:103D00000A1D013B8242636228BF2368A26004F15E
:103D100010000D6028BFA360FEF75AFF002038BDD9
:103D20000348FDF725FDE1E74FF0FF3038BD00BF48
:103D3000103E0408AFF30080AFF30080AFF30080C3
:103D400070B504460E461546FDF7F2FECCB1294685
:103D500004F11C00FEF79CFE054660B9E36822688A
:103D6000043B9342E36008D31E6004F11000FEF7A9
:103D70002FFFFEF72DF9284670BD6368043BE36012
:103D8000F2E70248FDF7F4FCE1E700BF003E04085B
:103D900070B5202306460D46144683F31188FDF7BF
:103DA0002FFE224629463046FFF7CAFF0446FDF79C
:103DB00037FE084B1A689A4207D0996993688A6857
:103DC0009A4202D20448FDF7D3FC002383F3118802
:103DD000204670BD50130020F03D0408AFF3008072
:103DE00038B504460D46FDF793FECCB1FDF790FEC5
:103DF000636A002B18DDFDF78BFEE368626A2168B9
:103E0000043B013A8B426262E36002D26368043B86
:103E1000E36004F110001D60FEF7DAFE002038BDFB
:103E20000348FDF7A5FCE1E74FF0FF3038BD00BFC8
:103E3000D03D0408AFF30080AFF30080AFF3008003
:103E400070B504460E461546FDF772FED4B1CEB1EC
:103E5000294604F11000FEF71BFE054680B9E36811
:103E60006268196804339342E36028BF23683160B5
:103E700004F11C0028BFE360FEF7AAFEFEF7A8F8D5
:103E8000284670BD0148FDF773FCE1E7A03D04083A
:103E900070B5202306460D46144683F31188FDF7BE
:103EA000AFFD224629463046FFF7CAFF0446FDF71C
:103EB000B7FD084B1A689A4207D0996993688A68D7
:103EC0009A4202D20448FDF753FC002383F3118881
:103ED000204670BD50130020F03D0408AFF3008071
:103EE00038B504460D46FDF713FEDCB1D5B1FDF73C
:103EF0000FFEA369002B19DDFDF70AFEA269E36836
:103F00006168013AA2611A6804338B42E36028BFFA
:103F100023682A6004F11C0028BFE360FEF758FE06
:103F2000002038BD0348FDF723FCE0E74FF0FF30E9
:103F300038BD00BFC03D0408AFF30080AFF3008080
:103F400030B4029C046200250A448560026100606E
:103F50004060C16081614161C36130BC704700BF96
:103F600010B50446FDF7D4FDE368A3610022A2600A
:103F7000636120466FF00101BDE81040FEF7D0BA42
:103F800038B504460D46FDF7C3FDFDF7C1FDA36935
:103F900062699A42A36810D00133511CA360616129
:103FA0001570626923699A4201D3E3686361204610
:103FB0000021FEF79DFA002038BD002BECD06FF0F9
:103FC000030038BDAFF30080AFF30080AFF3008093
:103FD00070B5202304460E4683F31188FDF710FDCB
:103FE000E36933B12046984703E0FEF769FA051EFE
:103FF00012DBFDF78DFDA36820463146002BF4D07F
:10400000A16920694A1C013B8242A360A26128BFCA
:10401000E3680D7828BFA361FDF702FD084B1A681D
:104020009A4207D0996993688A689A4202D20548F1
:10403000FDF79EFB002383F31188284670BD00BF67
:1040400050130020503E0408AFF30080AFF300800F
:104050002DE9F84F044689461D46D0F81C8092464B
:10406000002A53D0202383F31188FDF7C9FC294F80
:104070000026BB46B8F1000F05D02046C04702E03D
:10408000FEF71EFA70BBFDF743FDA36820462946E4
:10409000002BF5D0A269013B511CA161A3601378EC
:1040A00009F8013B2369A2699A4224BFE368A3612E
:1040B000FDF7B6FC3B68BB4208D0DBF818209B68D4
:1040C00092689A4202D21448FDF752FB002383F310
:1040D00011880136B24516D0202383F31188FDF7ED
:1040E0008FFCC7E7FDF79CFC3B680A4ABB4207D040
:1040F00092699B6892689A4202D20748FDF738FBA2
:10410000002383F311883046BDE8F88F0348FDF79C
:104110002FFBA7E750130020503E0408403E040840
:1041200030B4029C04628D180561006040608260BA
:10413000C16081614161C36130BC7047AFF30080F1
:1041400010B50446FDF7E4FCE2682369A2619B1AFE
:104150006261A36020466FF00101BDE81040FEF7E8
:10416000DFB900BFAFF30080AFF30080AFF3008092
:10417000F8B504460F461646202383F31188FDF751
:104180003FFC03E0FEF79CF9051E25DBFDF7C0FCB4
:10419000A36820463146002BF4D06269013B511CD4
:1041A0006161A3601770236962699A4224BFE36862
:1041B0006361E3690BB120469847FDF731FC134B6F
:1041C0001A689A4204D0996993688A689A4216D309
:1041D000002080F31188F8BDFDF722FC0B4B1A6814
:1041E0009A4207D0996993688A689A4202D208482D
:1041F000FDF7BEFA002383F311882846F8BD044872
:10420000FDF7B6FA002080F31188F8BD50130020A6
:10421000503E0408AFF30080AFF30080AFF300809E
:1042200038B50446FDF774FCFDF772FC6369A269BA
:104230009342A3680FD02069511C0133A360A16190
:104240008142157801D3E368A36120460021FEF77F
:104250004FF9284638BD002BEDD06FF0020038BD75
:104260002DE9F04F83B083460C460193D0F81C80B3
:104270001546002A5FD0202383F31188FDF7C0FB89
:10428000324F0026BA46B146FDF742FCDBF8083053
:10429000002B38D0DBF81420013B511CCBF8141054
:1042A000CBF8083023781370DBF81030DBF81420DB
:1042B0009A4224BFDBF80C30CBF814300134B8F14B
:1042C000000F01D05846C047FDF7AAFB3B68BB4230
:1042D00008D0DAF818209B6892689A4202D21C48EB
:1042E000FDF746FA89F31188013D06F101061ED05B
:1042F000202383F31188FDF783FBFDF709FCDBF82E
:104300000830002BC6D158460199FEF7D9F800288D
:10431000BAD0FDF785FB3B680C4ABB4204D09269DA
:104320009B6892689A420AD3002383F3118830462F
:1043300003B0BDE8F08F0748FDF71AFA9BE7044881
:10434000FDF716FA002383F31188F0E750130020DD
:10435000503E0408203E0408AFF30080AFF3008015
:10436000054A064B0648074922F0070223F00703D7
:1043700002600B60704700BF5FB2002000000220A7
:10438000C4180020C0180020AFF30080AFF30080F5
:1043900010B50446FDF7BCFB0649074B08681A68D0
:1043A000E31D23F00703121A93429ABF1B180B60F8
:1043B000002010BDC4180020C0180020AFF30080FA
:1043C00010B52023044683F31188FDF719FB20461E
:1043D000FFF7DEFF0446FDF723FB084B1A689A42FD
:1043E00007D0996993688A689A4202D20448FDF717
:1043F000BFF9002383F31188204610BD501300201D
:10440000603E0408AFF30080AFF30080AFF300809C
:10441000024A034B10681B68C01A7047C01800207E
:10442000C4180020AFF30080AFF30080AFF300802A
:10443000044B054A1A6003F1100000229A60DA600A
:10444000FEF78EBCC8180020C1430008AFF30080FF
:1044500070B516464A070C46054601D1730702D0CF
:104460000748FDF785F90023083EAC602B60EB6040
:1044700084E8480005F11000BDE87040FEF770BC0C
:10448000703E0408AFF30080AFF30080AFF300800C
:10449000F8B5214E002818BF064606F1100707316F
:1044A000384621F0070506F10804FEF7E9FC03E0B1
:1044B00043689D4212D9044620680028F8D1384646
:1044C000FEF746FD33682BB305F10800984708B3A3
:1044D0000660456000F108042046F8BD05F10802B9
:1044E0009A4209D9036823600446384644F8086BA9
:1044F000FEF72EFD2046F8BD6FF00701491B00EBCB
:10450000020E0B4401688150CEF80430C4F800E07C
:104510004560E9E70024DFE7C8180020AFF300801A
:104520002DE9F0418046002858D058F8086C06F173
:1045300010073846FEF7A4FC08363446A8F10805F3
:10454000AC4204D86368083323449D420BD3B44281
:104550000ED0AC420CD32468AC42F8D86368083360
:1045600023449D42F3D21F48FDF702F9B442F0D133
:1045700023681BB19D4201D31C46E1E758F8042C87
:1045800048F8083C256002F1080358F8080CE918BF
:1045900081420AD0626802F1080323449D4212D08E
:1045A0003846BDE8F041FEF7D3BC4968EB5848F8FF
:1045B000083C5318083348F8043C626802F10803C9
:1045C00023449D42ECD118E90A00134408332160CA
:1045D00063603846BDE8F041FEF7BABC0148FDF71C
:1045E000C7F8A2E7903E0408AFF30080AFF3008065
:1045F00070B50F4C002818BF044604F1100528467A
:104600000E46FEF73DFCA36873B1002214465868BD
:104610001B6801340244002BF9D106B132602846F0
:10462000FEF796FC204670BD1A461C46F5E700BF13
:10463000C8180020AFF30080AFF30080AFF3008014
:1046400070B50D461646044608B1032902D8034842
:10465000FDF78EF8002384E8680070BDA03E0408D2
:1046600010B50446FDF754FA5CB1206810B1036838
:10467000236010BDA3681BB16068BDE810401847F7
:1046800010BD0248FDF774F8EFE700BFD03E040804
:1046900010B52023044683F31188FDF7B1F92046B5
:1046A000FFF7DEFF0446FDF7BBF9084B1A689A4294
:1046B00007D0996993688A689A4202D20448FDF744
:1046C00057F8002383F31188204610BD50130020B3
:1046D000F03E0408AFF30080AFF30080AFF300803A
:1046E00038B504460D46FDF713FA24B11DB1236811
:1046F0002B60256038BD0348FDF73AF823682B602E
:10470000256038BDE03E0408AFF30080AFF30080C1
:1047100038B505460C46202383F31188FDF770F960
:1047200028462146FFF7DCFFFDF77AF9074B1A68A8
:104730009A4207D0996993688A689A4202D20448DB
:10474000FDF716F8002383F3118838BD50130020BD
:10475000F03E0408AFF30080AFF30080AFF30080B9
:1047600070B50D461446064628B142B90948BDE861
:104770007040FCF7FDBF0748FCF7FAFF44B129463B
:104780003046FFF7C5FF7368013C1D44F7D170BD8B
:1047900070BD00BFC03E0408AFF30080AFF30080DF
:1047A000EFF30983203383F30988002383F311880F
:1047B000704700BFAFF30080AFF30080AFF300801D
:1047C000202383F311880F4B5B6813F4006302D13D
:1047D00083F31188704710B5EFF309844FF08073AD
:1047E00044F8043CA4F1200383F30988FDF788FB17
:1047F00018B1054B44F8083C10BD044B44F8083C84
:1048000010BD00BF00ED00E0A5020008B0020008E6
:1048100008B500F0EDFC084801F05AF900F048F83E
:1048200000F01EFA00F0ACFA00F0B2F901F098FCCA
:10483000BDE8084000F004B8F0410408AFF3008080
:1048400000F09EBDAFF30080AFF30080AFF30080B7
:104850004FF0804310B5DB689B07044602D505483E
:10486000FCF786FF4FF08043002102225C63196150
:10487000DA6010BD003F0408AFF30080AFF30080A2
:104880004FF080430022DA60704700BFAFF3008032
:104890004FF0804310B5DB689B07044602D4034801
:1048A000FCF766FF4FF080435C6310BD103F0408C7
:1048B00000F0F6BDAFF30080AFF30080AFF30080EF
:1048C00030B400F108020125002400F1100300F1CA
:1048D00018010570446081618260C26003614361B8
:1048E00030BC7047AFF30080AFF30080AFF30080BF
:1048F00038B50D46044618B311B3202383F311884D
:10490000FDF77EF82378012B02D00F48FCF730FF2B
:104910002046656000F094FE02232370FDF780F8C6
:104920000A4B1A689A4207D0996993688A689A4232
:1049300002D20748FCF71CFF002383F3118838BD1F
:104940000148FCF715FFD8E7803F0408501300200A
:10495000903F0408AFF30080AFF30080AFF3008016
:104960002DE9F84F88461446074600284ED0002906
:104970004CD03B78022B02D02A48FCF7F9FE4FF0CE
:104980002009294E27E06CB389F311884FF0804B42
:10499000FDF736F807F108002146DBF824A0FDF703
:1049A0008FFD421C054620D0631C04D0DBF8243068
:1049B000CAEB0303E41AFDF733F83368B34207D0B8
:1049C000B2699B6892689A4202D21848FCF7D0FEFE
:1049D000002383F311883846414600F0A9FE0546BE
:1049E0000028D0D12846BDE8F88FFDF719F80E4B06
:1049F0001A689A4204D0996993688A689A4209D3DE
:104A0000002383F311882846BDE8F88F0548FCF79A
:104A1000AFFEAEE70548FCF7ABFE002383F3118839
:104A2000F1E700BFA03F040850130020903F0408A6
:104A300010B5044620B12046BDE8104000F0C0BECD
:104A40000348FCF795FE2046BDE8104000F0B8BED4
:104A5000C03F0408AFF30080AFF30080AFF30080E5
:104A60002DE9F84F88461446074600284ED0002905
:104A70004CD03B78022B02D02A48FCF779FE4FF04D
:104A80002009294E27E06CB389F311884FF0804B41
:104A9000FCF7B6FF07F110002146DBF824A0FDF774
:104AA0000FFD421C054620D0631C04D0DBF82430E7
:104AB000CAEB0303E41AFCF7B3FF3368B34207D031
:104AC000B2699B6892689A4202D21848FCF750FE7D
:104AD000002383F311883846414600F0B1FE0546B5
:104AE0000028D0D12846BDE8F88FFCF799FF0E4B7F
:104AF0001A689A4204D0996993688A689A4209D3DD
:104B0000002383F311882846BDE8F88F0548FCF799
:104B10002FFEAEE70548FCF72BFE002383F3118838
:104B2000F1E700BF203F040850130020903F040825
:104B300010B5044620B12046BDE8104000F0E0BEAC
:104B40000348FCF715FE2046BDE8104000F0D8BE33
:104B5000403F0408AFF30080AFF30080AFF3008064
:104B600010B5044650B12378022B02D00548FCF75B
:104B7000FFFD2046BDE8104000F002BF0148FCF7F1
:104B8000F7FDF0E7603F0408AFF30080AFF300806B
:104B900001F086B8AFF30080AFF30080AFF3008080
:104BA000704700BFAFF30080AFF30080AFF3008029
:104BB00010B5044682B030B129B1204602B0BDE83C
:104BC000104001F09DB805480191FCF7D1FD019915
:104BD000204602B0BDE8104001F092B8E03F040862
:104BE0000C30FFF735BA00BFAFF30080AFF30080A1
:104BF0000C304FF0FF33FFF72BBA00BFAFF300804C
:104C00003030FFF72DBB00BFAFF30080AFF3008063
:104C100030304FF0FF33FFF723BB00BFAFF300800E
:104C20000C30FFF7D5B900BFAFF30080AFF30080C1
:104C30000C304FF0FF31FFF7CBB900BFAFF300806E
:104C40003030FFF795BA00BFAFF30080AFF30080BC
:104C500030304FF0FF32FFF78BBA00BFAFF3008068
:104C600001F096B9AFF30080AFF30080AFF300809E
:104C700070B50E4B044682B040F8043B0126009408
:104C80000B461546606004F1540104F10C002672D5
:104C90001022FFF755F900942B4604F1300004F17F
:104CA00064011022FFF73CFA02B070BD20400408F6
:104CB00038B50D46044618B3202383F31188FCF75A
:104CC0009FFE237A013B012B02D90F48FCF750FDD0
:104CD0002946204601F07CF902232372FCF7A0FE4E
:104CE0000A4B1A689A4207D0996993688A689A426F
:104CF00002D20748FCF73CFD002383F3118838BD3E
:104D00000148FCF735FDD7E7F03F040850130020B9
:104D100010400408AFF30080AFF30080AFF30080D1
:104D200038B504460D46FCF7F3FEE4B1FCF7F0FE9F
:104D300063693BB1294604F10C00FFF721F9002813
:104D40000BDB38BD201D0421FEF74AFC294604F187
:104D50000C00FFF715F90028F3DA201D8021BDE8CB
:104D60003840FEF73DBC0248FCF702FDDEE700BF1D
:104D700000400408AFF30080AFF30080AFF3008081
:104D800001F0CEB9AFF30080AFF30080AFF3008045
:104D9000002301220270437083704360704700BF9C
:104DA00043099B0010B403F1604300F1604404F533
:104DB000614403F56143090100F01F0001228240B4
:104DC000C9B284F80013C3F880211A605DF8044B5F
:104DD000704700BFAFF30080AFF30080AFF30080F7
:104DE00008B5FCF765FE084B084A196801F03D015B
:104DF000996013680BB150689847FCF771FEBDE8E5
:104E00000840FFF7DDBC00BF00600240E81800204A
:104E100010B5FCF74DFE094B0948196882688909ED
:104E200001F03D018C019C600AB1C0689047FCF71D
:104E300057FEBDE81040FFF7C3BC00BF0060024052
:104E4000E8180020AFF30080AFF30080AFF30080DC
:104E500010B5FCF72DFE094B094819680269090CC9
:104E600001F03D010C049C600AB140699047FCF7D9
:104E700037FEBDE81040FFF7A3BC00BF0060024052
:104E8000E8180020AFF30080AFF30080AFF300809C
:104E900010B5FCF70DFE094B094819688269890DA8
:104EA00001F03D018C059C600AB1C0699047FCF798
:104EB00017FEBDE81040FFF783BC00BF0060024052
:104EC000E8180020AFF30080AFF30080AFF300805C
:104ED00008B5FCF7EDFD084B08485968026A01F077
:104EE0003D01D9600AB1406A9047FCF7F9FDBDE881
:104EF0000840FFF765BC00BF00600240E8180020D2
:104F000010B5FCF7D5FD094B09485968826A890933
:104F100001F03D018C01DC600AB1C06A9047FCF7EA
:104F2000DFFDBDE81040FFF74BBC00BF0060024052
:104F3000E8180020AFF30080AFF30080AFF30080EB
:104F400010B5FCF7B5FD094B09485968026B090C0F
:104F500001F03D010C04DC600AB1406B9047FCF7A6
:104F6000BFFDBDE81040FFF72BBC00BF0060024052
:104F7000E8180020AFF30080AFF30080AFF30080AB
:104F800010B5FCF795FD094B09485968826B890DEE
:104F900001F03D018C05DC600AB1C06B9047FCF765
:104FA0009FFDBDE81040FFF70BBC00BF0060024052
:104FB000E8180020AFF30080AFF30080AFF300806B
:104FC00008B5FCF775FD084B08481968026C01F03C
:104FD0003D0199600AB1406C9047FCF781FDBDE846
:104FE0000840FFF7EDBB00BF00640240E818002056
:104FF00010B5FCF75DFD094B09481968826C8909F9
:1050000001F03D018C019C600AB1C06C9047FCF737
:1050100067FDBDE81040FFF7D3BB00BF006402404E
:10502000E8180020AFF30080AFF30080AFF30080FA
:1050300010B5FCF73DFD094B09481968026D090CD4
:1050400001F03D010C049C600AB1406D9047FCF7F3
:1050500047FDBDE81040FFF7B3BB00BF006402404E
:10506000E8180020AFF30080AFF30080AFF30080BA
:1050700010B5FCF71DFD094B09481968826D890DB3
:1050800001F03D018C059C600AB1C06D9047FCF7B2
:1050900027FDBDE81040FFF793BB00BF006402404E
:1050A000E8180020AFF30080AFF30080AFF300807A
:1050B00008B5FCF7FDFC084B08485968026E01F082
:1050C0003D01D9600AB1406E9047FCF709FDBDE88B
:1050D0000840FFF775BB00BF00640240E8180020DD
:1050E00010B5FCF7E5FC094B09485968826E89093F
:1050F00001F03D018C01DC600AB1C06E9047FCF705
:10510000EFFCBDE81040FFF75BBB00BF006402404E
:10511000E8180020AFF30080AFF30080AFF3008009
:1051200010B5FCF7C5FC094B09485968026F090C1A
:1051300001F03D010C04DC600AB1406F9047FCF7C0
:10514000CFFCBDE81040FFF73BBB00BF006402404E
:10515000E8180020AFF30080AFF30080AFF30080C9
:1051600010B5FCF7A5FC094B09485968826F890DF9
:1051700001F03D018C05DC600AB1C06F9047FCF77F
:10518000AFFCBDE81040FFF71BBB00BF006402404E
:10519000E8180020AFF30080AFF30080AFF3008089
:1051A0000D4B30B400220D4D0D4C1A6011461346C4
:1051B000A858016044F833100133102B02F10C029F
:1051C000F6D10849084A4FF0FF338B6030BCCB6002
:1051D0009360D360704700BF681900204040040806
:1051E000E81800200060024000640240AFF3008035
:1051F0001D4B4FF0FF311A69002210B419611A617A
:10520000586959615A61186A184C60F080501862E8
:105210001A62586A59625A62196C41F080511964D5
:10522000216841F480712160196F01F44071B1F57A
:10523000007F03D04FF4803119671A670A4B1A6F49
:10524000120407D41A6F42F400721A671A6F42F4FC
:1052500000421A67054A5DF8044B536823F4007353
:105260005360FFF79DBF00BF003802400070004050
:105270002C492D4B4FF080504FF4404208641A6087
:105280000B6843F001030B600A68264B9007FBD5BF
:105290009A6822F003029A609A689A6019468B68AD
:1052A000204A13F00C03FAD1116801F0F9011160E2
:1052B0009360136843F4803313601168194B8903BA
:1052C000FBD55A6F42F001025A675A6F1549900791
:1052D000FBD5164B4B600B68134A43F080730B6091
:1052E00053685904FCD50F490A680E4B9201FBD54F
:1052F0000F4A1049996040F2047111609A6842F0B7
:1053000002029A601A469368064903F00C03082BC0
:10531000F9D14B6C43F480434B644B6E43F48043B0
:105320004B6670470038024000700040194B400740
:10533000003C02400094683DAFF30080AFF3008072
:1053400010B5FCF7B5FB4FF080431A6992070CD5F6
:1053500000241C61202383F31188FCF779FBFCF700
:1053600077FAFCF78DFB84F31188FCF7B9FBBDE8F5
:105370001040FFF725BA00BFAFF30080AFF3008005
:105380000F4A1048136C70B443F001031364816832
:105390004FF080430022012441F0010140F2DB562E
:1053A0004FF0FF3581609E621C20DD6208219A610A
:1053B0005A63DA605A605C611C6070BCFFF7F0BC35
:1053C00000380240002004E0AFF30080AFF300801B
:1053D00030B4417902790F4B42EA01221A64847891
:1053E000C27801784578200440EA02620A434FF609
:1053F000FF704FF0FF31002442EA05225A6498649E
:10540000D964186559659865D9659C60DC6030BCC5
:10541000704700BF00800240AFF30080AFF3008010
:1054200010B5FCF745FB194A41F21403D458D45087
:10543000620616D4E3070ED5202383F31188FCF708
:1054400007FB13486FF00101FDF76AF8FCF718FB42
:10545000002383F31188FCF743FBBDE81040FFF7FE
:10546000AFB9202383F31188FCF7F2FA09486FF0F3
:105470000101FDF755F808480021FEF7B1F8FCF7E7
:10548000FFFA002383F31188D4E700BF00800240B5
:10549000741900207C19002084190020AFF30080CB
:1054A0002DE9F84F5D4DDFF890815D4E5D4C28464B
:1054B000FFF706FA5C495D4BDFF880E15C4A4FF488
:1054C00090474F6008F5006BC1F8088008F58059D7
:1054D00008F5C05C01F1100001F1200A01F130086B
:1054E000C8604F610020C1F818B0C1F81CA003F1DA
:1054F000100B4F6206F5006AC1F82890C1F82C80A5
:1055000003F120094F6306F58058C1F838C006F54D
:10551000C05703F1300CC96358609E60C3F80CB0EB
:105520005861C3F818A0C3F81C905862C3F82880CB
:10553000C3F82CC058639F63DB63DEF80430287720
:1055400043F40003CEF80430236943F00073236171
:105550002061236B43F06063236316464FF0640EB3
:1055600045F6904700218B01CC0243F0100344F034
:105570009100536110611369DB07FCD47369B3F5C3
:10558000005F0BD001311F29EDD1BEF1010EE9D131
:105590002C622848FCF7ECF82C6A0CE044F0D103AC
:1055A00033611369D807FCD470694FF6F073034078
:1055B000BB42E7D12C621E4B4FF4004244F013046F
:1055C0005A611A461C611369DB07FCD46420FCF79E
:1055D000D7F92D6A164945F011000C4608610B6990
:1055E000134ADF07FBD463691E04F7D41061136903
:1055F0000F49D807FBD44B6945F0130543F400630A
:105600004B610A460D611369DB07FCD4054A136B35
:1056100023F060631363BDE8F88F00BF6C190020AE
:10562000D83900200038024098390020D85900208D
:1056300000800240704104089819002000380140A1
:10564000F8B5304D304C31494FF000424FF48013E3
:105650002A602A612A622A632360456223612362E9
:1056600023630B6B846243F0606306460B633D204B
:105670000D21FFF795FB306A254940F011030B61BE
:105680000B69234ADF07FBD4536940F0130023F46E
:1056900000635361114610610B691D4A13F0010349
:1056A000FAD17168536008689361D36128B3FFF73A
:1056B0008FFE174B174EDFF870E0174F174941F276
:1056C000100041F20C0C0C221A6043F80C5041F20D
:1056D00014021C5041F21C049D589D5041F21800C8
:1056E0004FF4801243F804E037601A500B680B4AFD
:1056F000DB02FBD40A4B1360F8BD0A48FFF768FED3
:10570000D7E700BF98390020D85900200038024060
:105710000080024000900240000102021890024006
:10572000022020060041040841000100AFF3008080
:10573000037F4BB370B520230D46044683F31188D5
:10574000FCF75EF9A66A336813F0014F1FD1336886
:1057500043F080733360F368A362FCF761F9164B82
:105760001A689A4204D0996993688A689A4207D362
:10577000002080F311884FF4006385E8490070BD74
:105780000E48FBF7F5FFF3E74FF0FF307047FCF7EB
:1057900047F9094B1A689A4207D0996993688A6851
:1057A0009A4202D20548FBF7E3FF002383F31188F6
:1057B0004FF0FF3070BD00BF50130020304104088F
:1057C00083681B68002B10B5044629DB202383F374
:1057D0001188FCF715F9A368216859601248134A2B
:1057E000186041F21401535803F4E003B3F5C00FFD
:1057F00004D141F20400042353501350FCF710F974
:105800000B4B1A689A4207D0996993688A689A4242
:1058100002D20848FBF7ACFF002383F3118810BDC8
:105820000548FBF7A5FFD1E7000010F0008002401B
:10583000501300203041040840410408AFF30080B9
:1058400070B5202306460D4683F31188FCF7D8F87F
:10585000736A1A68002A10DB4FF000441968224A64
:105860000A402AB91968880502D51968C9051FD4E4
:105870001C60DB681A68002AF0DA7362FCF7D0F863
:105880001A4B1A689A4204D0996993688A689A42B6
:1058900005D3002383F311884FF0FF3070BD144807
:1058A000FBF766FF002383F311884FF0FF3070BDD4
:1058B0001968D8682A60C1F30D42043A6A60AB6087
:1058C0007062FCF7ADF8094B1A689A4207D09969E3
:1058D00093688A689A4202D20548FBF749FF002084
:1058E00080F3118870BD00BF00800040501300207D
:1058F00030410408AFF30080AFF30080AFF30080C5
:1059000083681B68002B10B5044628DB202383F333
:105910001188FCF775F8A368134A4FF0004041F274
:1059200014011860535803F46023B3F5002F04D119
:1059300041F20800802353501350FCF771F80B4BD1
:105940001A689A4207D0996993688A689A4202D283
:105950000748FBF70DFF002383F3118810BD0548AE
:10596000FBF706FFD2E700BF008002405013002083
:105970003041040880410408AFF30080AFF3008099
:1059800070B40546006A264940F051060C680E6165
:105990000A69234BD207FBD45A691E611A46116962
:1059A0001F4BC907FBD440F011025E691A611A69E6
:1059B0001B49D207FBD44B69DA0407D506F034063D
:1059C000242E16D00020287770BC70477107F9D5B7
:1059D0009A044CBF44F4804424F48044DB051CD476
:1059E00024F400640E4A0123146018462B7770BC1F
:1059F000704740F4A87040F0010008610B69084A44
:105A0000D807FBD4536913F4607F14BF44F4804477
:105A100024F4804413F4A07FE2D044F40064E1E76E
:105A200000800240AFF30080AFF30080AFF300804E
:105A300030B583681B68002B83B0054612DB95E800
:105A400009001B1A9A4228BF1A4614463AB1AB689D
:105A50009B681844FAF70CFF2B6823442B60204600
:105A600003B030BD03488DE80600FBF781FE9DE8DA
:105A70000600E4E7B0410408AFF30080AFF3008014
:105A800070B583681B68002B82B0054613DB2E6857
:105A90006B689B1B9A4228BF1A46144642B1AB68FA
:105AA0009B6808469919FAF7E3FE2B6823442B609C
:105AB000204602B070BD04488DE80600FBF758FE92
:105AC0009DE80600E3E700BF10410408AFF3008043
:105AD0002DE9F04FDFF8B481DFF8B4C1D8F830A079
