:020000040800F2
:1000000000040020C1150008C1160008C116000830
:10001000C1160008C1160008C1160008C116000864
:10002000C1160008C1160008C1160008D116000844
:10003000C1160008C1160008C1160008C116000844
:10004000C1160008C1160008C1160008C116000834
:10005000C1160008C1160008C1160008C116000824
:10006000C1160008C1160008C1160008F198000862
:100070003199000871990008B1990008F1990008B8
:10008000319A0008719A0008C1160008C1160008CC
:10009000C1160008C1160008C1160008C1160008E4
:1000A000C1160008C1160008C1160008C1160008D4
:1000B00051A90008C1160008C1160008C1160008A1
:1000C000C1160008C1160008C1160008C1160008B4
:1000D000C1160008C116000851AB000891AC000819
:1000E000C1160008C1160008C1160008C116000894
:1000F000C1160008C1160008C1160008B19A000810
:10010000C1160008C1160008C1160008C116000873
:10011000C1160008C1160008C1160008C116000863
:10012000F19A0008319B0008719B0008B19B000800
:10013000F19B0008219F0008C1160008C1160008A5
:10014000C1160008C1160008C1160008C116000833
:10015000319C0008719C0008B19C000871AB00083C
:10016000C1160008C1160008C1160008C116000813
:10017000C1160008C1160008C1160008C116000803
:10018000C1160008C1160008C1160008C1160008F3
:10019000C1160008C1160008C1160008C1160008E3
:1001A000C1160008C1160008C1160008C1160008D3
:1001B000C1160008C1160008C1160008C1160008C3
:1001C00000B583B016F03CF9214B1B68002B35D1EC
:1001D0002048214C16F0F4F80025204A20491D48FB
:1001E00016F016F909F03CF801F0BAFA29461D4854
:1001F00009F096FA00951C4B1C484FF4B47140224C
:1002000001F0EEFF00951A4B1A484FF44A71412253
:1002100001F0E6FF0095184B184841F2E8215822FA
:1002200001F0DEFF03E042F2107002F0D9F823691A
:10023000DB07F8D50B4804F00BFFF4E7104C532014
:1002400016F01EF914F8010F0028F9D1C0E700BF1D
:100250001061002014610020000002404C020608DA
:10026000380206085C460020D1630108A85F002020
:1002700061AE00082047002011530108A84C00205F
:100280003C020608AFF30080AFF30080AFF30080BC
:100290002DE9F04FC1F80CD0D0F80CD0BDE8F08FAC
:1002A00001F056FB01F0DCFC002383F311882846A3
:1002B000A04702F055F901F0CBFC01F039FB01F049
:1002C0007FFE01F045FB01F0CBFC00DFFEE7000004
:1002D0004BB942B9002908BF002802D04FF0FF31C6
:1002E000084600F03DB882B0EC462DE9005000F021
:1002F0001FF8DDF804E002B00CBC704700000000FD
:100300002DE9F041069C154606460F46984600F03A
:100310002FF805FB01F300FB0838A5FB0023B21AF8
:10032000434467EB0303C4E90023BDE8F08100BF49
:100330002DE9F041069C904606460F461D4600F00A
:1003400067F900FB05F5A0FB082308FB0155B21A6D
:100350002B4467EB0303C4E90023BDE8F08100BF31
:10036000704700BF00000000000000000000000017
:1003700000292DE9F043C0F2A6800026002BC0F230
:100380009C80884694469E46154604460F46002BA0
:100390003DD18A4259D9B2FA82F33BB1C3F120026E
:1003A0009F4020FA02F29D4017439C40290C220CEA
:1003B000B7FBF1FEA8B201FB1E7742EA074700FB3C
:1003C0000EF3BB420AD97F190EF1FF3280F005818E
:1003D000BB4240F20281AEF1020E2F44FF1AA4B2DA
:1003E000B7FBF1F301FB137744EA074700FB03F087
:1003F000B84208D97F1903F1FF3280F0F080B8428B
:1004000040F2ED80023B43EA0E43002203E08B42C0
:100410000FD900221346341C18BF012460424FF04C
:10042000000565EB45015840514000196941BDE8A0
:10043000F083B3FA83F2002A40F086808B4202D325
:10044000844500F2DB800123E5E712B90123B3FB09
:10045000F2F5B5FA85F000283BD1781B4FEA154E2E
:100460001FFA85FC0122B0FBFEF8210C0EFB1807D9
:1004700041EA07470CFB08F3BB4207D97F1908F193
:10048000FF3102D2BB4200F2BD808846FF1AA4B2FF
:10049000B7FBFEF30EFB137744EA07470CFB03FCA4
:1004A000BC4507D97F1903F1FF3102D2BC4500F2E8
:1004B000A7800B4643EA0843ADE752426FEA0606BF
:1004C00063EB43035DE7404261EB41014FF0FF36D0
:1004D00054E7C0F1200224FA02F107FA00F3854044
:1004E0004FEA154ED7401943B7FBFEF20B0C0EFB3B
:1004F00012771FFA85FC43EA07430CFB02F79F4281
:1005000004FA00F407D95B1902F1FF3074D29F425C
:1005100072D9023A2B44DF1B89B2B7FBFEF80EFBFF
:10052000187341EA03430CFB08F79F4208D95B1993
:1005300008F1FF315CD29F425AD9A8F102082B443E
:10054000D81B48EA02428EE7C2F120032CFA03F1DD
:100550000EFA02FE20FA03F741EA0E0E08FA02F044
:1005600028FA03F14FEA1E453843B1FBF5F8030CB6
:1005700005FB18111FFA8EF743EA014107FB08F348
:100580008B420CFA02FC09D911EB0E0108F1FF397C
:1005900030D28B422ED9A8F102087144C91A80B218
:1005A000B1FBF5F305FB131140EA014107FB03F72B
:1005B0008F4208D911EB0E0103F1FF3016D28F42A2
:1005C00014D9023B714443EA0843C91BA3FB0C89BD
:1005D000494509D305D000221DE79646FEE613469D
:1005E00011E794404445F6D2013BF4E70346EAE7BD
:1005F0008846A5E7C846D1E702468CE713460AE7D6
:10060000023B57E7A8F102082F443FE70000000033
:100610002DE9F041002B44D18A42154604464FD9BA
:10062000B2FA82F70E464FB1C7F12003B94020FA63
:1006300003F602FA07F50E4300FA07F44FEA154EE7
:10064000230CB6FBFEF0AFB20EFB106143EA014390
:1006500007FB00F1994209D95B1900F1FF3280F0E4
:10066000EC80994240F2E98002382B445A1AA4B235
:10067000B2FBFEF30EFB132244EA024207FB03F730
:10068000974208D9521903F1FF3180F0D880974280
:1006900040F2D580023B43EA004000263146BDE8E7
:1006A000F0818B4247D8B3FA83F6002E48D18B42B3
:1006B00002D3824200F2CD8001203146BDE8F081B4
:1006C00012B90125B5FBF2F5B5FA85F8B8F1000FBE
:1006D00077D14A1B4FEA154EAFB20126B2FBFEF0AE
:1006E000230C0EFB102143EA014107FB00F38B4270
:1006F00007D9491900F1FF3202D28B4200F2BA80C9
:100700001046C91AA4B2B1FBFEF30EFB131144EA62
:10071000014407FB03F7A74208D9641903F1FF322C
:1007200080F08F80A74240F28C80023B43EA004079
:100730003146BDE8F081002630463146BDE8F08103
:10074000C6F1200422FA04F5B3402B4320FA04FC3E
:1007500001FA06F721FA04F54FEA134E4CEA0707AF
:10076000B5FBFEF8390C0EFB18551FFA83FC41EA65
:1007700005450CFB08F1A94202FA06F204D9ED186E
:1007800008F1FF3467D3A0466D1ABFB2B5FBFEF483
:100790000EFB145547EA05410CFB04FC8C4504D9BB
:1007A000C91804F1FF355CD32C4644EA0844CCEB6D
:1007B0000101A4FB0223994248D344D020460026DD
:1007C0006CE7C8F1200401FA08F305FA08F520FAED
:1007D00004F7E1404FEA154E1F43B1FBFEF63A0C19
:1007E0000EFB16111FFA85FC42EA01430CFB06F2D0
:1007F0009A4200FA08F407D95B1906F1FF3137D2A3
:100800009A4235D9023E2B449B1ABFB2B3FBFEF08D
:100810000EFB103347EA03430CFB00F1994207D962
:100820005B1900F1FF3221D299421FD902382B44C3
:100830005A1A40EA0646674650E7104616E70B4646
:1008400029E7134672E7B0409042B7D2601E0026F7
:1008500024E7304622E7A94295D9A8F102081D44B1
:1008600092E78C45A0D9023C19449EE71046DFE789
:100870000E46C9E70238294443E700BF00000000E4
:10088000844641EA000313F003036DD1403A41D39B
:1008900051F8043B40F8043B51F8043B40F8043B5A
:1008A00051F8043B40F8043B51F8043B40F8043B4A
:1008B00051F8043B40F8043B51F8043B40F8043B3A
:1008C00051F8043B40F8043B51F8043B40F8043B2A
:1008D00051F8043B40F8043B51F8043B40F8043B1A
:1008E00051F8043B40F8043B51F8043B40F8043B0A
:1008F00051F8043B40F8043B51F8043B40F8043BFA
:1009000051F8043B40F8043B51F8043B40F8043BE9
:10091000403ABDD2303211D351F8043B40F8043B89
:1009200051F8043B40F8043B51F8043B40F8043BC9
:1009300051F8043B40F8043B103AEDD20C3205D399
:1009400051F8043B40F8043B043AF9D2043208D091
:10095000D2071CBF11F8013B00F8013B01D30B8803
:1009600003806046704700BF082A13D38B078DD0E1
:1009700010F003038AD0C3F10403D21ADB071CBFB3
:1009800011F8013B00F8013B80D331F8023B20F81D
:10099000023B7BE7043AD9D3013A11F8013B00F856
:1009A000013BF9D20B7803704B7843708B788370DE
:1009B00060467047000000000000000000000000DA
:1009C000A2EB0300704700BF02780B78012A28BF12
:1009D0009A42F5D16DE9044540EA0104CDE9026788
:1009E0006FF0000C4FEA447212B380EA010414F075
:1009F000070F6AD100F0070420F0070004F0030598
:100A000021F007014FEAC505F0E8042314F0040FB4
:100A1000F1E804670CFA05F462EA040266EA0406E7
:100A20000AD063EA0403624667EA0407664603E005
:100A3000F0E80423F1E8046782FA4CF582EA060440
:100A4000A4FA8CF46CBB83FA4CF583EA0705A5FA8B
:100A50008CF595B950E9022351E9026782FA4CF509
:100A600082EA0604A4FA8CF483FA4CF583EA0705BB
:100A7000A5FA8CF52543DBD09CB92DBAB5FA85F4DF
:100A800024F0070427FA04F1DDE9026723FA04F3EE
:100A900003F0FF0001F0FF01FDE80445A0EB0100B9
:100AA000704724BAB4FA84F424F0070426FA04F157
:100AB000DDE9026722FA04F202F0FF0001F0FF0113
:100AC000FDE80445A0EB0100704714F0030F3CD192
:100AD00010F0030428D150F8082B51F8083B82FA93
:100AE0004CF582EA0305A5FA8CF55DB950F8042CA3
:100AF00051F8043C82FA4CF582EA0305A5FA8CF51C
:100B0000002DE8D02DBAB5FA85F424F0070423FAB5
:100B100004F122FA04F202F0FF0001F0FF01FDE807
:100B20000445A0EB010070474FEAC40420F0030025
:100B300050F8082B21F0030151F8083B0CFA04F49B
:100B400062EA040263EA0403C9E710F003041AD05E
:100B5000A1EB040120F00300E40750F8042B06D0B9
:100B60000FD28B785FFAA2F4E41A06D12BB1CB78BE
:100B70005FFAB2F4E41A00D11BB920465DF8104BBD
:100B8000704701F1040150F8042BCC0721F0030158
:100B900051F8043B48D824D222F07F4482FA4CF525
:100BA00094EA1325A5FA8CF50AD165B951F8043BEE
:100BB00084EA0204B4EB036F0ED150F8042BEBE788
:100BC0004FEA132355E035F07F454DD10878FDE815
:100BD0000445C0F1000070474FEA126203F0FF03C2
:100BE00047E002EA1C4482FA4CF594EA1345A5FA60
:100BF0008CF50AD165B951F8043B84EA0204B4EBE0
:100C0000034F0CD150F8042BEBE74FEA134330E0CD
:100C100015EA1C4528D10B884FEA124229E04FEA19
:100C2000124203EA1C4324E002F0FF0482FA4CF56E
:100C300094EA1365A5FA8CF50AD165B951F8043B1D
:100C400084EA0204B4EB032F09D150F8042BEBE73C
:100C50004FEA13630DE015F0FF0F05D10B684FEA63
:100C6000122223F07F4304E04FF00000FDE804452A
:100C7000704712BA1BBA82FA4CF482EA0304A4FA4F
:100C80008CF5B5FA85F402FA04F203FA04F34FEA9C
:100C90001260FDE80445A0EB13607047AFF30080DD
:100CA00081F0004102E000BF83F0004330B54FEA1D
:100CB00041044FEA430594EA050F08BF90EA020F8A
:100CC0001FBF54EA000C55EA020C7FEA645C7FEA1D
:100CD000655C00F0E2804FEA5454D4EB5555B8BF40
:100CE0006D420CDD2C4480EA020281EA030382EAB1
:100CF000000083EA010180EA020281EA0303362D43
:100D000088BF30BD11F0004F4FEA01314FF4801C15
:100D10004CEA113102D0404261EB410113F0004F27
:100D20004FEA03334CEA133302D0524263EB4303DE
:100D300094EA050F00F0A780A4F10104D5F1200E7C
:100D40000DDB02FA0EFC22FA05F2801841F10001D7
:100D500003FA0EF2801843FA05F359410EE0A5F1AB
:100D600020050EF1200E012A03FA0EFC28BF4CF0DC
:100D7000020C43FA05F3C01851EBE37101F0004592
:100D800007D54FF0000EDCF1000C7EEB00006EEB9F
:100D90000101B1F5801F1BD3B1F5001F0CD3490829
:100DA0005FEA30004FEA3C0C04F101044FEA445280
:100DB00012F5800F80F09A80BCF1004F08BF5FEA07
:100DC000500C50F1000041EB045141EA050130BDE7
:100DD0005FEA4C0C404141EB010111F4801FA4F18A
:100DE0000104E9D191F0000F04BF01460020B1FADF
:100DF00081F308BF2033A3F10B03B3F120020CDA17
:100E00000C3208DD02F1140CC2F10C0201FA0CF0F4
:100E100021FA02F10CE002F11402D8BFC2F1200C59
:100E200001FA02F120FA0CFCDCBF41EA0C0190400F
:100E3000E41AA2BF01EB0451294330BD6FEA040458
:100E40001F3C1CDA0C340EDC04F11404C4F1200243
:100E500020FA04F001FA02F340EA030021FA04F355
:100E600045EA030130BDC4F10C04C4F1200220FAAC
:100E700002F001FA04F340EA0300294630BD21FAEA
:100E800004F0294630BD94F0000F83F4801306BFB0
:100E900081F480110134013D4EE77FEA645C18BFA4
:100EA0007FEA655C29D094EA050F08BF90EA020F3B
:100EB00005D054EA000C04BF1946104630BD91EA33
:100EC000030F1EBF0021002030BD5FEA545C05D136
:100ED0004000494128BF41F0004130BD14F5800475
:100EE0003CBF01F5801130BD01F0004545F0FE41E9
:100EF00041F470014FF0000030BD7FEA645C1ABF1E
:100F0000194610467FEA655C1CBF0B46024650EA54
:100F1000013406BF52EA033591EA030F41F4002180
:100F200030BD00BF90F0000F04BF0021704730B506
:100F30004FF4806404F132044FF000054FF00001DB
:100F400050E700BF90F0000F04BF0021704730B59C
:100F50004FF4806404F1320410F0004548BF404271
:100F60004FF000013EE700BF42004FEAE2014FEAC6
:100F700031014FEA02701FBF12F07F4393F07F4FA1
:100F800081F06051704792F0000F14BF93F07F4FD3
:100F9000704730B54FF4607401F0004521F0004116
:100FA00020E700BF50EA010208BF704730B54FF09C
:100FB00000050AE050EA010208BF704730B511F0A1
:100FC000004502D5404261EB41014FF4806404F1D9
:100FD00032045FEA915C3FF4DCAE4FF003025FEA5B
:100FE000DC0C18BF03325FEADC0C18BF033202EBE3
:100FF000DC02C2F1200300FA03FC20FA02F001FA3D
:1010000003FE40EA0E0021FA02F11444C1E600BFDB
:1010100070B54FF0FF0C4CF4E06C1CEA11541DBF8E
:101020001CEA135594EA0C0F95EA0C0F00F0DEF859
:101030002C4481EA030621EA4C5123EA4C5350EA3E
:10104000013518BF52EA033541F4801143F480138F
:1010500038D0A0FB02CE4FF00005E1FB02E506F020
:101060000042E0FB03E54FF00006E1FB03569CF075
:10107000000F18BF4EF0010EA4F1FF04B6F5007F7B
:1010800064F5407404D25FEA4E0E6D4146EB0606ED
:1010900042EAC62141EA55514FEAC52040EA5E5076
:1010A0004FEACE2EB4F1FD0C88BFBCF5E06F1ED820
:1010B000BEF1004F08BF5FEA500E50F1000041EB57
:1010C000045170BD06F0004646EA010140EA020004
:1010D00081EA0301B4EB5C04C2BFD4EB0C0541EA26
:1010E000045170BD41F480114FF0000E013C00F33B
:1010F000AB8014F1360FDEBF002001F0004170BD5F
:10110000C4F10004203C35DA0C341BDC04F1140477
:10111000C4F1200500FA05F320FA04F001FA05F203
:1011200040EA020001F0004221F0004110EBD370D0
:1011300021FA04F642EB06015EEA430E08BF20EAFC
:10114000D37070BDC4F10C04C4F1200500FA04F39F
:1011500020FA05F001FA04F240EA020001F0004131
:1011600010EBD37041F100015EEA430E08BF20EAA4
:10117000D37070BDC4F1200500FA05F24EEA020EEC
:1011800020FA04F301FA05F243EA020321FA04F01B
:1011900001F0004121FA04F220EA020000EBD370D2
:1011A0005EEA430E08BF20EAD37070BD94F0000FD2
:1011B0000FD101F00046400041EB010111F4801F06
:1011C00008BF013CF7D041EA060195F0000F18BFB7
:1011D000704703F00046520043EB030313F4801FF3
:1011E00008BF013DF7D043EA0603704794EA0C0FAD
:1011F0000CEA135518BF95EA0C0F0CD050EA4106C3
:1012000018BF52EA4306D1D181EA030101F000413F
:101210004FF0000070BD50EA410606BF1046194667
:1012200052EA430619D094EA0C0F02D150EA013673
:1012300013D195EA0C0F05D152EA03361CBF1046B4
:1012400019460AD181EA030101F0004141F0FE4153
:1012500041F470014FF0000070BD41F0FE4141F4D7
:10126000780170BD70B54FF0FF0C4CF4E06C1CEAD7
:1012700011541DBF1CEA135594EA0C0F95EA0C0F8C
:1012800000F0A7F8A4EB050481EA030E52EA033547
:101290004FEA013100F088804FEA03334FF0805568
:1012A00045EA131343EA12634FEA022245EA111595
:1012B00045EA10654FEA00260EF000419D4208BF46
:1012C000964244F1FD0404F5407402D25B084FEAF3
:1012D0003202B61A65EB03055B084FEA32024FF49F
:1012E00080104FF4002CB6EB020E75EB030E22BFFC
:1012F000B61A754640EA0C005B084FEA3202B6EBBC
:10130000020E75EB030E22BFB61A754640EA5C006A
:101310005B084FEA3202B6EB020E75EB030E22BFFA
:10132000B61A754640EA9C005B084FEA3202B6EBFB
:10133000020E75EB030E22BFB61A754640EADC00BA
:1013400055EA060E18D04FEA051545EA16754FEA1C
:1013500006164FEAC30343EA52734FEAC2025FEA3A
:101360001C1CC0D111F4801F0BD141EA00014FF0C9
:1013700000004FF0004CB6E711F4801F04BF01439A
:101380000020B4F1FD0C88BFBCF5E06F3FF6AFAEB6
:10139000B5EB030C04BFB6EB020C5FEA500C50F146
:1013A000000041EB045170BD0EF0004E4EEA1131C9
:1013B00014EB5C04C2BFD4EB0C0541EA045170BDD0
:1013C00041F480114FF0000E013C90E645EA060E14
:1013D0008DE60CEA135594EA0C0F08BF95EA0C0F42
:1013E0003FF43BAF94EA0C0F0AD150EA01347FF48A
:1013F00034AF95EA0C0F7FF425AF104619462CE761
:1014000095EA0C0F06D152EA03353FF4FDAE1046C3
:10141000194622E750EA410618BF52EA43067FF414
:10142000C5AE50EA41047FF40DAF52EA43057FF4A4
:10143000EBAE12E70000000000000000000000001A
:101440004FF0FF3C06E000BF4FF0010C02E000BF90
:101450004FF0010C4DF804CD4FEA410C7FEA6C5C73
:101460004FEA430C18BF7FEA6C5C1BD001B050EA16
:10147000410C0CBF52EA430C91EA030F02BF90EA01
:10148000020F0020704710F1000F91EA030F58BFC0
:10149000994208BF90422CBFD8176FEAE37040F022
:1014A000010070474FEA410C7FEA6C5C02D150EAC0
:1014B000013C07D14FEA430C7FEA6C5CD6D152EA7B
:1014C000033CD3D05DF8040B704700BF8446104640
:1014D00062468C461946634600E000BF01B5FFF73F
:1014E000B7FF002848BF10F1000F01BD4DF808ED0F
:1014F000FFF7F4FF0CBF012000205DF808FB00BFE0
:101500004DF808EDFFF7EAFF34BF012000205DF839
:1015100008FB00BF4DF808EDFFF7E0FF94BF012086
:1015200000205DF808FB00BF4DF808EDFFF7CEFF87
:1015300094BF012000205DF808FB00BF4DF808EDC6
:10154000FFF7C4FF34BF012000205DF808FB00BF97
:101550004FEA410212F5001215D211D56FF47873DB
:10156000B3EB625212D94FEAC12343F0004343EA7E
:10157000505311F0004F23FA02F018BF4042704759
:101580004FF00000704750EA013005D111F00040E3
:1015900008BF6FF0004070474FF00000704700BF79
:1015A000704700BFAFF30080AFF30080AFF300805F
:1015B000FEE700BFAFF30080AFF30080AFF3008021
:1015C00072B6314C84F30988022383F31488BFF385
:1015D0006F8F09F0CDFB2D4B2D4A93420BD2D9438F
:1015E0000A4422F0030204321A444FF0553143F802
:1015F000041B9342FBD1274BA3420CD2264A191D50
:10160000521A22F0030204321A444FF0553143F8C3
:10161000041B9342FBD1214A214B9A420CD2D04366
:10162000184420F003001F4B0430184453F8041BE7
:1016300042F8041B8342F9D11B4B1C4A93420AD245
:10164000D9430A4422F0030204321A44002143F829
:10165000041B9342FBD1164D164CFFF7A1FFAC4281
:1016600004D254F8043B9847AC42FAD3124D134CC1
:10167000FEF7A6FDAC4204D254F8043B9847AC42B6
:10168000FAD3FFF795FF00BF0008002000000020FC
:1016900000040020000400200308002000080020AF
:1016A000F812002008050608F81200204C610020FE
:1016B000C0010008C0010008C0010008C001000806
:1016C000FEE700BFAFF30080AFF30080AFF3008010
:1016D000EFF30983203383F30988002383F3118810
:1016E000704700BFAFF30080AFF30080AFF300801E
:1016F000202383F311880F4B5B6813F4006302D13E
:1017000083F31188704710B5EFF309844FF08073AD
:1017100044F8043CA4F1200383F3098800F0C8FBDB
:1017200018B1054B44F8083C10BD044B44F8083C84
:1017300010BD00BF00ED00E0B7020008CA020008BB
:10174000024B034A9B699A61FEE700BFF812002032
:1017500060AE0108AFF30080AFF30080AFF300800C
:10176000234B244A2448F0B500249C60DF68234EB4
:10177000234D4FF6FF0139400A43DA60F26842F028
:101780008072F2600268202142F00102102602609D
:1017900083B0DE7783F8221000F07AFA00F018FCAC
:1017A00000F0D6F903F044F803F0B2F800F010FAB4
:1017B00000F066F94021284600F0AAFCA5F58867EC
:1017C000104BC361012680F82060B86100F0A0F8DA
:1017D00084F3118862B6BB690B4A9A6105F1A000D7
:1017E00032460094F821094B00F0FAFC03B0F0BD3A
:1017F00000ED00E00003FA05001000E0F0ED00E06D
:10180000381700200004002010B10108411700081B
:1018100008B5044672B615F02BFE034815F028FEF5
:10182000024BDC62FEE700BF68AE0108F812002040
:101830002DE9F047214D4FF0804700F001F900F00D
:10184000FFF8EC69AB6A7A6AA068D11A814205F1A7
:101850001C0820D300264FF020092268D4F80CA0E1
:101860000344AB62C2F80480EA61E66000F0A0F8CD
:1018700000F006FA86F311882069D04789F31188B1
:1018800000F0F6F900F07CF8EC697A6AAB6AA068BF
:10189000D11A8142E1D244450BD0012804D0104432
:1018A000BDE8F04707F0DCBF901CBDE8F04707F04B
:1018B000D7BFBDE8F04707F0CBBF00BFF81200204C
:1018C0008A4206D9814208D8824294BF0020012072
:1018D00070478142F8D8012070470020704700BF50
:1018E00008494A68104490424B6802D9934202D298
:1018F00070479342F7D283422CBF00230123002B71
:10190000F1D17047001000E0AFF30080AFF300802A
:10191000044B1A6B0AB95B6B13B10348FFF778BF2E
:10192000704700BFF8120020C0AE0108AFF300807E
:1019300010B5054C236B0BB9636B13B10348FFF76C
:1019400067FF0123636310BDF8120020C8AE0108D1
:1019500010B5074C236B2BB9636B002B02DD002302
:10196000636310BD0348FFF753FF0023636310BD9B
:10197000F8120020D0AE0108AFF30080AFF3008072
:1019800010B5064C236B002B01DD636B13B10448CB
:10199000FFF73EFF0123636310BD00BFF812002074
:1019A000D8AE0108AFF30080AFF30080AFF3008042
:1019B00010B5084C236B002B05DD636B002B02DD9B
:1019C0000023636310BD0448FFF722FF0023636315
:1019D00010BD00BFF8120020E0AE0108AFF3008098
:1019E00010B5202383F31188074C236B002B01DBF8
:1019F000626B1AB10548FFF70BFF236B01332363BA
:101A0000002383F3118810BDF8120020E8AE01080E
:101A100010B5202383F31188074C236B002B01DDC5
:101A2000626B1AB10548FFF7F3FE236B013B23639A
:101A3000002383F3118810BDF8120020F0AE0108D6
:101A4000054B1A6B002A03DB5B6B002B00DD704734
:101A50000248FFF7DDBE00BFF8120020F8AE010813
:101A6000044B1A6B1AB95B6B002B00DD7047024800
:101A7000FFF7CEBEF812002000AF0108AFF30080E0
:101A8000024B40215A189963DA637047F81200201C
:101A90000C4A4FF08041D36B10B44C6A9169596085
:101AA0001C60416A996090F820101973103302F598
:101AB00088618B4228BF02F14003D3635DF8044B79
:101AC000704700BFF8120020AFF30080AFF3008032
:101AD00000220023C0E9042300234FF0FF3280E8F6
:101AE0000C008360C3607047AFF30080AFF30080E9
:101AF000014B5B6883607047001000E0AFF300802B
:101B00000F4B10495A688368F0B4D1F8A074C668C6
:101B10004168D0E90445D31ADB1BE41845F1000500
:101B200001368B42C6608360C0E9044505D802686F
:101B3000934238BF0360F0BC70474360F0BC70470D
:101B4000001000E0F8120020AFF30080AFF3008037
:101B5000D0B50D4C86B000234FF0FF32684600260A
:101B60000027C4F8A0340193029303930092CDE9B7
:101B70000467FFF7BDFF6846FFF7C2FF029BC4F88A
:101B8000A03406B0D0BD00BFF8120020AFF3008033
:101B90000E4B42685B6870B48B60D0E90445866880
:101BA000C1689B1BE41845F1000501319342C160F7
:101BB0008360C0E9044505D80268934238BF0360DA
:101BC00070BC7047436070BC704700BF001000E0FD
:101BD00010B5084C002304F59660C4F8A834C4F886
:101BE000AC34FFF775FF04F59960BDE81040FFF7CE
:101BF0006FBF00BFF8120020AFF30080AFF300808A
:101C0000034AD2F8A8340133C2F8A834704700BFA1
:101C1000F8120020AFF30080AFF30080AFF3008034
:101C2000074AD2F8AC3410B400F14804013301F192
:101C3000480021465DF8044BC2F8AC34FFF7A8BF5A
:101C4000F8120020AFF30080AFF30080AFF3008004
:101C50000148FFF74DBF00BFA8170020AFF3008079
:101C60000148FFF74DBF00BFA8170020AFF3008069
:101C70000148FFF73DBF00BFC0170020AFF3008051
:101C80000148FFF73DBF00BFC0170020AFF3008041
:101C9000034B00225B601B605B611B619A607047B5
:101CA000F8120020AFF30080AFF30080AFF30080A4
:101CB00010B50446FFF7C4FEE4B194F820308BB1B0
:101CC0000F2B0FD00022A1680C4B84F820201B683A
:101CD0009A688A42FBD25A686260236020465C6040
:101CE000146010BD064815F0C3FB00BE0548FFF7A1
:101CF0008FFDE7E70348FFF78BFDDEE7F8120020D2
:101D000020AF010810AF0108AFF30080AFF30080EF
:101D100038B50446202383F31188FFF7A9FFFFF7A6
:101D20002FFE94F82030072B10D8DFE803F0150FB2
:101D30000F1D0A040F0A656AFFF782FEAB680133C4
:101D4000AB6094E80C001A60226853604FF0FF33D8
:101D500063622046FFF7ACFFFFF72AFEFFF790FF14
:101D6000002383F3118838BD636A00221A604FF0A4
:101D7000FF3363622046FFF79BFFEDE7AFF3008080
:101D800070B5124C0646FFF76BFE2368A5691A680A
:101D900085F8206001215460284683F820102260D5
:101DA000A361FFF775FE2946A069FFF739FFEFF33E
:101DB0000983EA69243B9A4202D90548FFF728FDC6
:101DC000A0692946BDE87040FEF762BAF81200200B
:101DD00030AF0108AFF30080AFF30080AFF30080B5
:101DE00070B50C4686B00646FFF73AFE631C14D069
:101DF0000E4D0F4AAB69214601A800F0F9F83046B4
:101E0000FFF7BEFFFFF71CFE049B13B101A800F013
:101E10003FF9AB69586A06B070BD044D3046FFF714
:101E2000AFFFAB69586A06B070BD00BFF812002062
:101E3000111D0008AFF30080AFF30080AFF3008006
:101E400070B5194D04460E46FFF70AFEA869A26850
:101E5000836866629A4218D9FFF72AFF0123064673
:101E600084F82030AC61FFF713FE20463146FFF7BF
:101E7000D7FEEFF30983F269243B9A420AD8204641
:101E80003146BDE87040FEF703BA2046BDE8704019
:101E9000FFF70EBF0548FFF7BBFC20463146BDE803
:101EA0007040FEF7F5B900BFF812002030AF01080E
:101EB000044B1A689B6990689B68984294BF002005
:101EC00001207047F8120020AFF30080AFF30080CC
:101ED00038B5114C2368A5691A6822600121546045
:101EE000284683F82010A361FFF7E2FE2846FFF79B
:101EF000CFFD2946A069FFF793FEEFF30983EA6956
:101F0000243B9A4202D90548FFF782FCA069294682
:101F1000BDE83840FEF7BCB9F812002030AF010828
:101F200070B5174D2A68AC691368A1682B6001264B
:101F300000205D6082F82060AA6184F8200000E043
:101F40001B689A688A42FBD85A6862602360204600
:101F50005C601460FFF79CFDA8692146FFF760FEF6
:101F6000EFF30983E269243B9A4202D90548FFF75F
:101F70004FFCA8692146BDE87040FEF789B900BF53
:101F8000F812002030AF0108AFF30080AFF30080FB
:101F900008B5FFF765FDFFF753FD064B1A689B690F
:101FA00092689B689A4200D808BDBDE80840FFF7D8
:101FB000B7BF00BFF8120020AFF30080AFF300807E
:101FC000FFF7AEBFAFF30080AFF30080AFF3008048
:101FD000054B4FF0FF3003F11C020021586299625B
:101FE0001A62DA61704700BFF8120020AFF3008078
:101FF0002DE9F04106460C4690461D46FFF720FDB0
:1020000066B3B8F1000F29D044B31C4F35613B468D
:10201000012C53F81C5FC6F80C804FF0804298BF2B
:1020200002249D42526A22D0B86AAB68121A144444
:102030009C4203D216E02D68E41AAB68A342FAD39F
:102040006B68736035606E601E60B460A9684FF0A5
:10205000FF33091BA9607B62BDE8F0810848FFF7E8
:10206000D7FBD2E7204407F0FBFBAB68E6E7A018FC
:10207000BA6207F0CDFB7B6AE0E700BFF8120020F0
:1020800040AF0108AFF30080AFF30080AFF30080F2
:1020900038B50446FFF7D4FC64B3E36813B3226891
:1020A000A3689168174D606819442B4691600260DF
:1020B000216853F81C2F48609A424FF000004FF0FF
:1020C000FF31E060696219D09368A86A012B04D9D6
:1020D0001844BDE8384007F0C3BB0230BDE83840C3
:1020E00007F0BEBB084815F0C3F900BE0748FFF76C
:1020F0008FFBD4E70548FFF78BFBCEE7BDE8384000
:1021000007F0A6BBF812002060AF010850AF01082D
:10211000174A2DE9F041044657690261002304F192
:10212000280C04F1600E04F1480504F12C064FF070
:1021300002080120A160216484F82200676184F80C
:1021400021305461E363A363A36184F820802846AF
:102150003C61C4F828C0C4F81CE02663E662FFF7BF
:10216000B7FC2846FFF7C4FC2046BDE8F08100BF5D
:10217000F8120020AFF30080AFF30080AFF30080CF
:10218000884203D200F8012B8842FBD1704700BF80
:102190002DE9F04104460D4616461F46DDF818802D
:1021A000FFF74EFC0CB1E72D11D80B48FFF730FBC1
:1021B000A5F12403E218094DE2603146E7502046BC
:1021C000C2F804801562BDE8F041FFF7A1BF7F2E81
:1021D000EBD8002FECD1E8E7F0AF0108A10200082E
:1021E0002DE9F04F83B080460C9F894692469B466E
:1021F00000F160050446FF2604F8016BA542FBD1FF
:1022000008EB0904A54238BF552603D205F8016B37
:10221000A542FBD1202383F31188FFF719FDFFF7B7
:1022200087FB52465B46494600974046FFF7B0FFA2
:1022300000210446FFF704FEFFF78AFBFFF710FDBD
:102240000A4B9A691B6892689B689A4206D20848B2
:1022500015F00EF900BE0748FFF7DAFA002383F302
:102260001188204603B0BDE8F08F00BFF8120020AF
:102270007CAE010870B00108AFF30080AFF30080BE
:1022800010B52023044683F31188FFF7E1FCFFF724
:102290004FFB94F82030022B06D0114815F0E8F8D7
:1022A00000BE1048FFF7B4FA2046FFF701FD0446D0
:1022B000FFF74EFBFFF7D4FC0B4B9A691B68926843
:1022C0009B689A4206D2094815F0D2F800BE084829
:1022D000FFF79EFA002383F31188204610BD00BF4C
:1022E00000B0010880B00108F81200207CAE01089F
:1022F00070B00108AFF30080AFF30080AFF300804F
:102300007F2870B5044628D8202383F31188154D03
:10231000FFF79EFCFFF70CFBAB691E6C9A689642B8
:1023200001D0944200D99C601C64FFF731FEFFF796
:102330000FFBFFF795FCAA692B6892689B689A428D
:1023400006D2094815F094F800BE0848FFF760FA75
:10235000002383F31188304670BD0548FFF758FA13
:10236000D2E700BFF81200207CAE010870B001086F
:10237000C0AF0108AFF30080AFF30080AFF300807F
:1023800010B52023044683F31188FFF761FCFFF7A3
:10239000CFFA94F8213043F0040384F82130FFF79A
:1023A000D7FAFFF75DFC094B9A691B6892689B6836
:1023B0009A4206D2064815F05BF800BE0548FFF7C2
:1023C00027FA002383F3118810BD00BFF812002004
:1023D0007CAE010870B00108AFF30080AFF300805D
:1023E00010B52023044683F31188FFF731FCFFF773
:1023F0009FFA14B90E48FFF70BFA21460820FFF7A1
:10240000EFFCFFF7A5FAFFF72BFC0A4B9A691B6854
:1024100092689B689A4206D2074815F029F800BED8
:102420000648FFF7F5F9002383F3118810BD00BFBC
:1024300090B00108F81200207CAE010870B00108CD
:1024400010B52023044683F31188FFF701FCFFF742
:102450006FFA4FF08043596A611A02D00820FFF7E3
:10246000BFFCFFF775FAFFF7FBFB094B9A691B6886
:1024700092689B689A4206D2064814F0F9FF00BEA3
:102480000548FFF7C5F9002383F3118810BD00BF8D
:10249000F81200207CAE010870B00108AFF3008094
:1024A00010B5202383F31188124CFFF7D1FBFFF7FF
:1024B0003FFAFFF7D5FAFFF7D3FA2268A3699268CB
:1024C0009B689A4201D3FFF703FDFFF741FAFFF73C
:1024D000C7FBA269236892689B689A4206D20648A5
:1024E00014F0C6FF00BE0548FFF792F9002383F3FE
:1024F000118810BDF81200207CAE010870B00108F0
:1025000038B5124B9C69A36A606204F128059D42AC
:1025100007D01A68A2621846FFF7CAFBA36AAB424B
:10252000F7D194F821309B0704D1636922691A61BD
:10253000226953610F20FFF723FC054814F098FF30
:1025400000BE0448BDE83840FFF762B9F812002029
:102550000CB00108B0AF0108AFF30080AFF300800A
:1025600010B52023044683F31188FFF771FBFFF7B2
:10257000DFF92046BDE81040FFF7C2BFAFF300808F
:1025800070B50446002842D0202383F31188224DE1
:10259000FFF75EFBFFF7CCF9AB69A3422FD094F8AD
:1025A000223023B394F820300F2B06D0AB69A26AF7
:1025B0001A600920A362FFF7E3FB666AFFF7C8F918
:1025C000FFF74EFBAA692B6892689B689A4206D275
:1025D000124814F04DFF00BE1148FFF719F900230F
:1025E00083F31188204600F0BBF8304670BD0D48DB
:1025F00014F03EFF00BE0C48FFF70AF9D2E70B4883
:1026000014F036FF00BE0848FFF702F9C7E7064896
:10261000FFF7FEF8B8E700BFF81200207CAE010813
:1026200070B0010830B00108E0AF010820B0010827
:1026300069B1084B10B4024644689B69042083E8E2
:102640001400536023605DF8044BFFF7C9BB4FF0E3
:10265000FF307047F8120020AFF30080AFF3008026
:1026600038B50468A04214D02368036094F8202091
:102670005860042A0D4606D0064814F0F9FE00BE44
:102680000548FFF7C5F865622046BDE83840FFF70A
:102690000FBB38BD20AF010890AF0108AFF3008039
:1026A00070B50468A04205460E4614D023682B601E
:1026B00094F8202008485D60042A05D014F0D8FE64
:1026C00000BE0648FFF7A4F866622046FFF7F0FA5E
:1026D0002C68A542EAD170BD20AF010890AF010877
:1026E00010B52023044683F31188FFF7B1FAFFF7F2
:1026F0001FF994F82230FF2B19D0013384F82230CF
:10270000FFF726F9FFF7ACFA0E4B9A691B6892683F
:102710009B689A4206D20C4814F0AAFE00BE0B48F1
:10272000FFF776F8002383F31188204610BD084890
:1027300014F09EFE00BE0748FFF76AF894F82230B6
:10274000DBE700BFF81200207CAE0108F0B0010802
:10275000D0B00108A0B00108AFF30080AFF3008053
:1027600038B50546202383F31188FFF771FAFFF788
:10277000DFF895F822303BB3013BDCB285F822400C
:10278000FFF7E6F8FFF76CFA1F4B9A691B6892682F
:102790009B689A4206D21D4814F06AFE00BE1C488F
:1027A000FFF736F8002383F311881CB995F8203021
:1027B0000F2B00D038BD95F8213003F00303012B17
:1027C0000CD0022B14D038BD124814F051FE00BEBC
:1027D0001148FFF71DF895F82230CDE76B692A699B
:1027E0001A612A6928465361BDE8384002F008B9E9
:1027F0006B692A691A612A69686C53612946BDE8C8
:10280000384002F005BA00BFF81200207CAE010883
:10281000F0B0010830B0010800B10108AFF300804A
:102820002DE9F04182B090461F460D4602F0A0F817
:102830000446002836D000F160063146FF22FFF73B
:102840009FFC304661195522FFF79AFC202383F341
:102850001188FFF7FDF9FFF76BF8089B00934246DC
:10286000204629463B46FFF793FC012380F82130A0
:1028700000210446FFF7E4FAFFF76AF8FFF7F0F9E2
:102880000A4B9A691B6892689B689A4206D208486C
:1028900014F0EEFD00BE0748FEF7BAFF002383F3F5
:1028A0001188204602B0BDE8F08100BFF812002078
:1028B0007CAE0108F0B00108AFF30080AFF30080F8
:1028C0002DE9F043884683B017469946054600280F
:1028D00041D0284602F054F90446002838D000F1CF
:1028E00060063146FF22FFF74BFC69683046214401
:1028F0005522FFF745FC202383F31188FFF7A8F941
:10290000FFF716F842466968CDF8009020463B462E
:10291000FFF73EFC022380F8213045640021044685
:10292000FFF78EFAFFF714F8FFF79AF90C4B9A6944
:102930001B6892689B689A4206D20A4814F098FD78
:1029400000BE0948FEF764FF002383F31188204688
:1029500003B0BDE8F0830548FEF75AFFB9E700BFB2
:10296000F81200207CAE0108F0B00108B0B00108F8
:1029700038B5202383F31188104DFFF769F9FEF76E
:10298000D7FF2C6994F82230013384F82230FEF707
:10299000DFFFFFF765F9AA692B6892689B689A4286
:1029A00006D2074814F064FD00BE0648FEF730FF6B
:1029B000002383F31188204638BD00BFF8120020A1
:1029C0007CAE010840B10108AFF30080AFF3008096
:1029D00070B52023064683F31188FFF739F9194DA6
:1029E000FEF7A6FF3469AC4229D094F82230FF2BC1
:1029F0001BD0013384F82230FEF7AAFFFFF730F92D
:102A0000AA692B6892689B689A4206D20E4814F015
:102A10002FFD00BE0D48FEF7FBFE002383F3118857
:102A20003046FFF79DFE204670BD094814F020FD9A
:102A300000BE0848FEF7ECFE94F82230D9E70024E7
:102A4000DAE700BFF81200207CAE010840B10108AF
:102A5000D0B0010830B10108AFF30080AFF30080BF
:102A600038B50D46044628B1002903DB64602460B4
:102A7000A56038BD0348FEF7CBFE64602460A56006
:102A800038BD00BF50B10108AFF30080AFF3008044
:102A900070B504460E46FEF7D3FF1CB3002E21DBB3
:102AA000A5682368002D1ADB9C4207D00F4814F05C
:102AB000DFFC00BE0E48FEF7ABFEA568A660013540
:102AC000002D0BDC6FF001066068436863601C60DA
:102AD000FFF7EEF80135012D4662F5D170BD9C423D
:102AE000ECD1E3E70248FEF793FED9E770B10108A5
:102AF00060B10108AFF30080AFF30080AFF3008056
:102B000038B505460C46202383F31188FFF7A0F85B
:102B1000FEF70EFF28462146FFF7BAFFFFF738FA07
:102B2000FEF716FFFFF79CF8084B9A691B6892683E
:102B30009B689A4206D2064814F09AFC00BE0548EB
:102B4000FEF766FE002383F3118838BDF8120020DB
:102B50007CAE0108C0B10108AFF30080AFF3008084
:102B600038B50446FEF77CFF3CB3A3682268002B0F
:102B70000FDB944207D0134814F07AFC00BE1248D1
:102B8000FEF746FEA368013B002BA36007DB002095
:102B900038BD9442EFD0013B002BA360F7DA0B4D18
:102BA000AB695C6262685A601C60052063601360F8
:102BB000FFF7E6F8AB69586A38BD0348FEF728FE10
:102BC000D3E700BF70B1010800B20108F81200207D
:102BD00010B52023044683F31188FFF739F8FEF778
:102BE000A7FE2046FFF7BCFF0446FEF7B1FEFFF745
:102BF00037F8094B9A691B6892689B689A4206D21B
:102C0000064814F035FC00BE0548FEF701FE00231F
:102C100083F31188204610BDF81200207CAE010815
:102C2000C0B10108AFF30080AFF30080AFF30080C4
:102C300038B504460D46FEF713FF44B3A368226877
:102C4000002B0FDB944207D0154814F011FC00BE96
:102C50001448FEF7DDFDA3685A1E002AA26007DBB8
:102C6000002038BD9442EFD05A1E002AA260F7DA45
:102C70008DB10D4B9B695C6262685A601C6029468D
:102C8000636005201360BDE83840FFF7A9B8054828
:102C9000FEF7BEFDD2E7A3604FF0FF3038BD00BFA6
:102CA00070B10108A0B10108F8120020AFF3008054
:102CB00038B505460C46202383F31188FEF7C8FF7C
:102CC000FEF736FE21462846FFF7B2FF0446FEF720
:102CD0003FFEFEF7C5FF094B9A691B6892689B6827
:102CE0009A4206D2064814F0C3FB00BE0548FEF720
:102CF0008FFD002383F31188204638BDF812002091
:102D00007CAE0108C0B10108AFF30080AFF30080D2
:102D100010B50446002839D0A368002B23682ADBAD
:102D20009C4206D01B4814F0A3FB00BE1A48FEF7D5
:102D30006FFD202383F31188FEF78AFFFEF7F8FD6D
:102D4000A3680133002BA36018DDFEF701FEFEF738
:102D500087FF124B9A691B6892689B689A4206D259
:102D60000F4814F085FB00BE0E48FEF751FD00230E
:102D700083F3118810BD9C42DBD1D3E72068036840
:102D8000236000215C60FFF75BF8DEE70248FEF796
:102D90003FFDC1E770B1010890B10108F8120020B1
:102DA0007CAE0108C0B10108AFF30080AFF3008032
:102DB00010B50446FEF744FE1CB3A3682268002B3E
:102DC0000EDB944207D0114814F052FB00BE1048AD
:102DD000FEF71EFDA3680133002BA36006DD10BDC6
:102DE0009442F0D00133002BA360F8DC23681A680A
:102DF00022600021546059621846BDE81040FEF779
:102E000057BF0348FEF704FDD7E700BF70B10108C4
:102E1000D0B10108AFF30080AFF30080AFF30080C2
:102E200070B505460C46FEF70BFE35B3002C24DDCD
:102E3000AB68002B2B681DDB9D4206D0114814F0B7
:102E400017FB00BE1048FEF7E3FC002C11DD002646
:102E500001E0013C0DD0AB680133002BAB60F8DC26
:102E6000286803682B605D60FEF722FF013C466224
:102E7000F1D170BD9D42E8D1E0E70348FEF7C8FC00
:102E8000D6E700BF70B10108E0B10108AFF30080E0
:102E900070B50C46054600284CD000294AD0AB68D6
:102EA000002B2B6843DB9D4206D02F4814F0E0FA3C
:102EB00000BE2E48FEF7ACFCA368002B236833DB72
:102EC0009C4206D0284814F0D3FA00BE2748FEF7EB
:102ED0009FFC202383F31188FEF7BAFEFEF728FD3E
:102EE000AB680133002BAB6035DDA368013B002BE1
:102EF000A36023DBFFF74CF81D4D0024FEF728FDEF
:102F0000FEF7AEFEAA692B6892689B689A4206D2C9
:102F1000184814F0ADFA00BE1748FEF779FC0023FC
:102F200083F31188204670BD9C42D2D1CAE79D42EE
:102F3000C2D1BAE70D48FEF76BFCB0E70C4D6368F1
:102F4000AE6905203460736066601E607462FEF7CF
:102F500017FF746AD2E7286803682B605D60FEF78C
:102F6000A7FE00234362C0E770B1010810B2010858
:102F7000F81200207CAE0108C0B10108AFF3008058
:102F800010B5044620B1002364602460A36010BD26
:102F90000148FEF73DFCF6E720B20108AFF30080E0
:102FA0003F4B70B505469C69FEF75AFD002D73D066
:102FB000A86800283ED0A26883689A4207D990F892
:102FC00020308260062B4ED0072B38D03BB32B46E7
:102FD00003E09968A268914202D31B689D42F8D130
:102FE0005A686260236006205C6014606562FEF7C8
:102FF000C7FEAB68A34206D02A4814F039FA00BED7
:103000002948FEF705FCE36BAB4217D0274814F0C4
:103010002FFA00BE2448BDE87040FEF7F9BB90E8E7
:103020000C00012180F820101A6002685360FEF73E
:103030003FFECCE7E36BEB60AC60E56370BD90E80E
:103040000A001960466A01684B60334602E09968DD
:10305000914202D31B689E42F9D15A6842600360D4
:1030600058601060B3E790E80A001960466A01688A
:103070004B60334602E09968914202D31B689E423E
:10308000F9D15A684260036058601060B068A26865
:103090008368934293D39AE70348FEF7B9FB87E727
:1030A000F812002040B2010830B201084CB2010809
:1030B00010B52023044683F31188FEF7C9FDFEF7FF
:1030C00037FC2046FFF76CFFFEF742FCFEF7C8FD19
:1030D000084B9A691B6892689B689A4206D2064818
:1030E00014F0C6F900BE0548FEF792FB002383F3F7
:1030F000118810BDF81200207CAE0108C0B2010892
:1031000010B50446FEF7ACFC5CB1A3680BB100201F
:1031100010BD064B9B69A360DA6BE2600120DC63A3
:1031200010BD0348FEF774FBEFE700BFF812002064
:10313000A0B20108AFF30080AFF30080AFF30080CE
:1031400010B52023044683F31188FEF781FDFEF7B6
:10315000EFFB2046FFF7D4FF0446FEF7F9FBFEF72E
:103160007FFD094B9A691B6892689B689A4206D258
:10317000064814F07DF900BE0548FEF749FB002320
:1031800083F31188204610BDF81200207CAE0108A0
:10319000C0B20108AFF30080AFF30080AFF300804E
:1031A0002DE9F041DFF8F4800646D8F818700028C1
:1031B0005BD0202383F31188FEF74AFDFEF7B8FBAE
:1031C000FB6B002B55D09A68BA4207D02D4814F0FB
:1031D0004FF900BE2C48FEF71BFBFB6B9E4206D04E
:1031E0002A4814F045F900BE2748FEF711FBF368A2
:1031F000FB63FEF735FC33689E4233D0FC6B3D6CBD
:1032000064B1FEF72DFC23689C4203D09B689D426D
:1032100038BF1D46E468002CF3D133681A68DC6BB4
:10322000BD601846326000215660B360F460DE6312
:10323000FEF706FEFEF78CFBFEF712FDD8F818200D
:10324000D8F8003092689B689A4206D2104814F071
:103250000FF900BE0F48FEF7DBFA002383F3118855
:10326000BDE8F0810023B360E4E70748FEF7D0FA39
:103270009FE7094814F0FCF800BE0348FEF7C8FABF
:10328000FB6BA0E774B20108B0B2010888B2010874
:103290007CAE0108C0B2010858B20108F812002043
:1032A000F8B5294B06469F69FEF7DAFB002E3DD0A4
:1032B000FB6B002B3ED09A68BA4207D0234814F02B
:1032C000D7F800BE2248FEF7A3FAFB6B9E4206D059
:1032D000204814F0CDF800BE1D48FEF799FAF368B7
:1032E000FB63FEF7BDFB33689E421CD0FC6B3D6C5C
:1032F00064B1FEF7B5FB23689C4203D09B689D42F6
:1033000038BF1D46E468002CF3D133681A68D96BC6
:10331000BD60184632605660B360F160DE63BDE8A0
:10332000F840FEF7C5BC0023B360F8BD0848FEF7BF
:103330006FFABDE7084814F09BF800BE0448FEF79A
:1033400067FAFB6BB7E700BFF812002074B2010800
:10335000D0B2010888B2010858B20108AFF300806A
:10336000F8B51E4E2023B56983F31188FEF770FC73
:10337000FEF7DEFAEC6BE4B100270AE01A68D96BBD
:1033800022605460A360E160DC63FEF791FCEC6BAB
:103390005CB1E368EB63FEF763FB23689C4218466D
:1033A000ECD1A760EC6B002CF3D12B6CAB60FEF77B
:1033B000EFFDFEF7CDFAFEF753FCB2693368926871
:1033C0009B689A4206D2064814F052F800BE05489F
:1033D000FEF71EFA002383F31188F8BDF8120020CF
:1033E0007CAE0108C0B20108AFF30080AFF30080EB
:1033F00010B5044610B16460246010BD0248FEF7A9
:1034000007FA6460246010BDE0B20108AFF30080E9
:1034100010B5044628B3202383F31188FEF718FC67
:10342000FEF786FA2068A04205D0036823600021D9
:103430005C60FEF705FDFEF78BFAFEF711FC0B4B07
:103440009A691B6892689B689A4206D2084814F0F1
:103450000FF800BE0748FEF7DBF9002383F311885D
:1034600010BD0548FEF7D4F9D5E700BFF8120020DB
:103470007CAE010870B3010810B30108AFF30080FF
:1034800010B50446FEF7DCFA6CB123689C4209D003
:103490001A6822600021546059621846BDE8104045
:1034A000FEF706BC10BD0248FEF7B2F9EDE700BF1B
:1034B00000B30108AFF30080AFF30080AFF30080EA
:1034C00038B50446FEF7BCFA74B12068A0420AD0B1
:1034D0006FF00105036823605C60FEF7E9FB45625D
:1034E0002068A042F6D138BD0148FEF791F9ECE71B
:1034F00020B30108AFF30080AFF30080AFF300808A
:1035000010B52023044683F31188FEF7A1FBFEF7D4
:103510000FFA2046FFF7D4FFFEF73AFDFEF718FA40
:10352000FEF79EFB084B9A691B6892689B689A425B
:1035300006D2064813F09CFF00BE0548FEF768F966
:10354000002383F3118810BDF81200207CAE01081F
:1035500070B30108AFF30080AFF30080AFF30080D9
:1035600070B5184E0546B469FEF77AFAF5B1E36B0B
:1035700003B3B369DE6B3046FFF792FE65622B46FC
:1035800003E09968A268914202D31B689D42F8D17A
:103590005A686260236007205C601460FEF7F0FBED
:1035A000646A3046FFF7FCFC204670BD0648FEF713
:1035B0002FF9DCE7054813F05BFF00BE0248FEF779
:1035C00027F9D6E7F812002060B3010840B30108DC
:1035D00010B52023044683F31188FEF739FBFEF76C
:1035E000A7F92046FFF7BCFF0446FEF7B1F9FEF746
:1035F00037FB094B9A691B6892689B689A4206D20E
:10360000064813F035FF00BE0548FEF701F9002318
:1036100083F31188204610BDF81200207CAE01080B
:1036200070B30108AFF30080AFF30080AFF3008008
:10363000F8B505460F46FEF713FA1DB317B3184C3D
:10364000A369DE6B16B33046FFF72AFEA4692B464A
:10365000656203E09968A268914202D31B689D42AB
:10366000F8D15A686260236039465C6007201460B4
:10367000FEF7B6FB431C044602D03046FFF790FC31
:103680002046F8BD0748FEF7C3F8D8E7064813F010
:10369000EFFE00BE0348FEF7BBF8A369DE6BD2E77E
:1036A000F812002080B3010840B30108AFF3008096
:1036B00038B505460C46202383F31188FEF7C8FA77
:1036C000FEF736F921462846FFF7B2FF0446FEF71B
:1036D0003FF9FEF7C5FA094B9A691B6892689B6827
:1036E0009A4206D2064813F0C3FE00BE0548FEF714
:1036F0008FF8002383F31188204638BDF81200208C
:103700007CAE010870B30108AFF30080AFF3008016
:103710002DE9F0410C4690461F46064640B339B3AA
:10372000202383F31188144DFEF792FAFEF700F977
:103730003368AA692360002334606260E360C4F8E0
:1037400008802761FEF704F9FEF78AFAAA692B6858
:1037500092689B689A4206D2084813F089FE00BE20
:103760000748FEF755F8002383F31188BDE8F08180
:103770000448FEF74DF8D3E7F81200207CAE0108AC
:1037800020B40108B0B30108AFF30080AFF30080AC
:1037900038B50D46044640B339B3202383F311886E
:1037A000FEF756FAFEF7C4F8224602E09D4219D011
:1037B0001A461368A342F9D1FEF7CAF8FEF750FA89
:1037C0000C4B9A691B6892689B689A4206D20A4819
:1037D00013F04EFE00BE0948FEF71AF8002383F3EB
:1037E000118838BD2B681360E6E70548FEF710F82E
:1037F000D3E700BFF81200207CAE010820B4010816
:10380000D0B30108AFF30080AFF30080AFF30080C6
:1038100038B50446202383F31188104DFEF718FABB
:10382000FEF786F8AA69936B23EA040191631C40B2
:10383000FEF78EF8FEF714FAAA692B6892689B6867
:103840009A4206D2064813F013FE00BE0548FDF763
:10385000DFFF002383F31188204638BDF8120020D3
:103860007CAE010820B40108AFF30080AFF3008004
:1038700038B50446202383F311880F4DFEF7E8F98D
:10388000FEF756F8AA69936B1C439463FEF760F841
:10389000FEF7E6F9AA692B6892689B689A4206D2FD
:1038A000064813F0E5FD00BE0548FDF7B1FF002313
:1038B00083F31188204638BDF81200207CAE010841
:1038C00020B40108AFF30080AFF30080AFF30080B5
:1038D00038B504460D46FEF7B3F8CCB1A36B94F8A7
:1038E000202045EA03010A2AA1630DD00B2A00D04B
:1038F00038BD636A19408B42FAD1002363622046C7
:10390000BDE83840FEF7D4B9636A1942F5D138BD35
:103910000148FDF77DFFE1E730B40108AFF3008017
:1039200070B506460D46FEF78BF88EB13468A64298
:103930000DD0E3682B43E36015B12269134203D035
:103940006068A168FFF7C4FF2468A642F1D170BD8A
:103950000148FDF75DFFE9E7E0B30108AFF3008040
:1039600038B50D46044610B3202383F31188FEF7C3
:103970006FF9FDF7DDFF20462946FFF7A9FFFEF7A7
:1039800007FBFDF7E5FFFEF76BF90B4B9A691B6828
:1039900092689B689A4206D2084813F069FD00BEFF
:1039A0000748FDF735FF002383F3118838BD05482C
:1039B000FDF72EFFD8E700BFF81200207CAE01080B
:1039C00020B4010810B40108AFF30080AFF3008009
:1039D00038B505460C46202383F31188FEF738F9E5
:1039E000FDF7A6FF28462146FFF79AFFFEF7D0FA1B
:1039F000FDF7AEFFFEF734F9084B9A691B68926831
:103A00009B689A4206D2064813F032FD00BE054874
:103A1000FDF7FEFE002383F3118838BDF812002065
:103A20007CAE010820B40108AFF30080AFF3008042
:103A30002DE9F0410E46054608B3AEB100244FF023
:103A4000010808FA04F737420BD02B6873B12046FF
:103A500026EA0706043598470134002EF1D1BDE867
:103A6000F08101340435ECE7BDE8F081064813F03D
:103A7000FFFC00BE0548FDF7CBFE2B68E7E70348D7
:103A8000FDF7C6FED9E700BF00B40108A0B30108E6
:103A900070B5184D0446AE69202383F31188FEF7F4
:103AA000D7F8FDF745FFB36B14EA030206D1746241
:103AB0000A20FEF765F9B36B04EA0302544214408E
:103AC00023EA0403B363FDF743FFFEF7C9F8AA69CD
:103AD0002B6892689B689A4206D2074813F0C8FC8C
:103AE00000BE0648FDF794FE002383F311882046AC
:103AF00070BD00BFF81200207CAE010820B40108A0
:103B0000F8B5174C0646A569202383F31188FEF704
:103B10009FF8FDF70DFFAB6B16EA030706D16E6247
:103B20000A20FEF72DF9AB6B06EA030723EA070329
:103B3000AB63FDF70DFFFEF793F8A2692368926867
:103B40009B689A4206D2074813F092FC00BE0648D2
:103B5000FDF75EFE002383F311883846F8BD00BFF1
:103B6000F81200207CAE010820B40108AFF30080F9
:103B700070B5164E0446B569202383F31188FEF70D
:103B800067F8FDF7D5FEAB6B04EA0302A24204D04E
:103B90006C620B20FEF7F4F8AB6B23EA0403AB6313
:103BA000FDF7D6FEFEF75CF8B269336892689B6851
:103BB0009A4206D2064813F05BFC00BE0548FDF7AA
:103BC00027FE002383F31188204670BDF8120020E1
:103BD0007CAE010820B40108AFF30080AFF3008091
:103BE000F8B5294D04460F46AE69202383F31188AA
:103BF000FEF72EF8FDF79CFEB26B14EA02030AD121
:103C0000EFB1746239460A20FEF7EAF8002816DBA5
:103C1000B26B04EA02035C421C4022EA0402B26373
:103C2000FDF796FEFEF71CF8AA692B6892689B6860
:103C30009A4212D3002383F311882046F8BDFDF782
:103C400087FEFEF70DF8AA692B6892689B689A4276
:103C50000FD3002080F31188F8BD0C4813F008FC46
:103C600000BE0B48FDF7D4FD002383F311882046E6
:103C7000F8BD064813F0FCFB00BE0548FDF7C8FD83
:103C8000002080F31188F8BDF81200207CAE0108F6
:103C900020B40108AFF30080AFF30080AFF30080E1
:103CA0002DE9F0412B4D06468846AF69202383F36A
:103CB0001188FDF7CDFFFDF73BFEBB6B16EA030451
:103CC0000CD1B8F1000F1CD07E6241460A20FEF7ED
:103CD00087F8002815DBBB6B06EA030423EA04031C
:103CE000BB63FDF735FEFDF7BBFFAA692B68926841
:103CF0009B689A4214D3002383F311882046BDE8C1
:103D0000F081FDF725FEFDF7ABFFAA692B689268ED
:103D10009B689A4211D3002080F31188BDE8F0819E
:103D20000D4813F0A5FB00BE0C48FDF771FD002304
:103D300083F311882046BDE8F081074813F098FB13
:103D400000BE0648FDF764FD002080F31188BDE841
:103D5000F08100BFF81200207CAE010820B40108F9
:103D6000F8B5264D04460F46AE69202383F311882B
:103D7000FDF76EFFFDF7DCFDB36B04EA0302A24220
:103D800008D02FB3746239460B20FEF729F80028BB
:103D90001EDBB36B23EA0403B363FDF7D9FDFDF724
:103DA0005FFFAA692B6892689B689A4204D300233C
:103DB00083F311882046F8BD114813F059FB00BE6B
:103DC0001048FDF725FD002383F311882046F8BD38
:103DD000FDF7BEFDFDF744FFAA692B6892689B685A
:103DE0009A4206D2064813F043FB00BE0548FDF791
:103DF0000FFD002080F31188F8BD00BFF8120020ED
:103E00007CAE010820B40108AFF30080AFF300805E
:103E1000F8B51E4E0F46B4690546002831D0202360
:103E200083F31188FDF714FFFDF782FD05F12C02E5
:103E300095F8200062622B6B67630E2884E80C0003
:103E40002C631C6019D00C20FDF79AFF646AFDF703
:103E50007FFDFDF705FFB269336892689B689A425F
:103E600006D20B4813F004FB00BE0A48FDF7D0FC55
:103E7000002383F311882046F8BD2846FDF718FF7C
:103E8000E1E70548FDF7C4FCC9E700BFF8120020D0
:103E90007CAE010860B4010840B40108AFF30080B3
:103EA00038B5202383F31188174CFDF7D1FEFDF7B9
:103EB0003FFDA569FDF7C4FDEB6A2C35AB421ED072
:103EC000A369DD6A2A6843F82C2F0D21536085F819
:103ED0002010FDF73DFDFDF7C3FEA269236892683F
:103EE0009B689A4206D2094813F0C2FA00BE0848FD
:103EF000FDF78EFC002383F31188284638BD0E2081
:103F0000FDF73EFFDCE700BFF81200207CAE0108A1
:103F100060B40108AFF30080AFF30080AFF300801E
:103F200038B504460D46202383F31188FDF790FE33
:103F3000FDF7FEFC94F820300D2B06D0114813F04D
:103F400097FA00BE1048FDF763FCFDF789FD204697
:103F50002946FDF775FFFDF7FBFCFDF781FE0B4BD6
:103F60009A691B6892689B689A4206D2084813F0C7
:103F70007FFA00BE0748FDF74BFC002383F311884E
:103F800038BD00BF20AF010850B40108F81200206E
:103F90007CAE010860B40108AFF30080AFF300808D
:103FA00070B50D4616460446A0B199B1002A11DD40
:103FB00005EB8603314604F11C00E560A560256031
:103FC0006360FEF74DFD04F110000021BDE8704074
:103FD000FEF746BD0148FDF71BFCE9E780B4010888
:103FE00010B50446FDF72CFD84B123686168E360D9
:103FF000C91A04F11C00A3608910FEF749FD04F101
:1040000010000021BDE81040FEF742BD0148FDF759
:10401000FFFBEAE790B40108AFF30080AFF3008044
:1040200010B52023044683F31188FDF711FEFDF738
:104030007FFC2046FFF7D4FFFDF7AAFFFDF788FCC1
:10404000FDF70EFE084B9A691B6892689B689A42BE
:1040500006D2064813F00CFA00BE0548FDF7D8FB5F
:10406000002383F3118810BDF81200207CAE0108F4
:10407000C0B40108AFF30080AFF30080AFF300805D
:1040800070B504460E461546FDF7EAFCC4B1294654
:1040900004F11C00FEF7CCFD054678B9A268616802
:1040A000131D8B42A36028BF2368166004F1100023
:1040B00028BFA360FEF77CFEFDF76AFF284670BDAF
:1040C0000148FDF7A5FBE2E7F0B40108AFF300807B
:1040D00070B5202306460D46144683F31188FDF77C
:1040E000B7FDFDF725FC224629463046FFF7C8FFFD
:1040F0000446FDF72DFCFDF7B3FD094B9A691B68DB
:1041000092689B689A4206D2064813F0B1F900BE45
:104110000548FDF77DFB002383F31188204670BD21
:10412000F81200207CAE0108C0B40108AFF3008093
:1041300038B504460D46FDF783FCCCB1FDF780FC95
:10414000636A002B18DDFDF77BFCA168636A606879
:104150000A1D013B8242636228BF2368A26004F10A
:1041600010000D6028BFA360FEF722FE002038BDBE
:104170000348FDF74DFBE1E74FF0FF3038BD00BFCE
:10418000E0B40108AFF30080AFF30080AFF300802C
:1041900070B504460E461546FDF762FCCCB12946C3
:1041A00004F11C00FEF744FD054660B9E36822688F
:1041B000043B9342E36008D31E6004F11000FEF755
:1041C000F7FDFDF7E5FE284670BD6368043BE3603C
:1041D000F2E70248FDF71CFBE1E700BFD0B401089D
:1041E00070B5202306460D46144683F31188FDF76B
:1041F0002FFDFDF79DFB224629463046FFF7C8FFFD
:104200000446FDF7A5FBFDF72BFD094B9A691B68DA
:1042100092689B689A4206D2064813F029F900BEBC
:104220000548FDF7F5FA002383F31188204670BD99
:10423000F81200207CAE0108C0B40108AFF3008082
:1042400038B504460D46FDF7FBFBCCB1FDF7F8FB96
:10425000636A002B18DDFDF7F3FBE368626A2168EF
:10426000043B013A8B426262E36002D26368043B22
:10427000E36004F110001D60FEF79AFD002038BDD8
:104280000348FDF7C5FAE1E74FF0FF3038BD00BF46
:10429000A0B40108AFF30080AFF30080AFF300805B
:1042A00070B504460E461546FDF7DAFBD4B1CEB123
:1042B000294604F11000FEF7BBFC054680B9E3680F
:1042C0006268196804339342E36028BF2368316051
:1042D00004F11C0028BFE360FEF76AFDFDF758FEFD
:1042E000284670BD0148FDF793FAE1E770B4010874
:1042F00070B5202306460D46144683F31188FDF75A
:10430000A7FCFDF715FB224629463046FFF7C8FFFC
:104310000446FDF71DFBFDF7A3FC094B9A691B68DA
:1043200092689B689A4206D2064813F0A1F800BE34
:104330000548FDF76DFA002383F31188204670BD10
:10434000F81200207CAE0108C0B40108AFF3008071
:1043500038B504460D46FDF773FBDCB1D5B1FDF76A
:104360006FFBA369002B19DDFDF76AFBA269E36807
:104370006168013AA2611A6804338B42E36028BF86
:1043800023682A6004F11C0028BFE360FEF710FDDB
:10439000002038BD0348FDF73BFAE0E74FF0FF305F
:1043A00038BD00BFB0B40108AFF30080AFF30080A8
:1043B00030B4029C046200250A44856002614060BA
:1043C000006041618161C160C36130BC704700BF62
:1043D00010B50446FDF734FBE36863610022A26078
:1043E000A36120466FF00101BDE81040FEF758B907
:1043F00038B504460D46FDF723FBFDF721FBA36905
:1044000062699A42A36810D00133511CA3606161B4
:104410001570626923699A4201D3E368636120469B
:104420000021FEF71DF9002038BD002BECD06FF005
:10443000030038BDAFF30080AFF30080AFF300801E
:1044400070B5202304460E4683F31188FDF700FC67
:10445000FDF76EFAE36933B12046984703E0FEF7B3
:10446000E7F8051E12DBFDF7EBFAA368204631469C
:10447000002BF4D0A16920694A1C013B8242A36051
:10448000A26128BFE3680D7828BFA361FDF760FA39
:10449000FDF7E6FB094B9A691B6892689B689A4294
:1044A00006D2074812F0E4FF00BE0648FDF7B0F957
:1044B000002383F31188284670BD00BFF812002046
:1044C0007CAE010830B50108AFF30080AFF3008087
:1044D0002DE9F84F044689461D46D0F81C809246C7
:1044E000002A5DD0202383F31188FDF7B1FBFDF78F
:1044F0001FFA00262C4FB346B8F1000F06D0204615
:10450000C04703E0FEF794F8002832D1FDF798FA8F
:10451000A36820462946002BF4D0A269013B511C18
:10452000A161A360137809F8013B2369A2699A424B
:1045300024BFE368A361FDF70BFAFDF791FBBA69AD
:104540003B6892689B689A4206D2184812F090FF26
:1045500000BE1748FDF75CF98BF311880136B245B0
:104560001BD0202383F31188FDF772FBFDF7E0F9E0
:10457000C2E7FDF7EDF9FDF773FBBA693B68926896
:104580009B689A4206D2094812F072FF00BE0848A2
:10459000FDF73EF9002383F311883046BDE8F88F1C
:1045A0000448FDF735F99DE7F81200207CAE0108BC
:1045B00030B5010820B50108AFF30080AFF30080EB
:1045C00030B4029C04628D18056140600060826016
:1045D00041618161C160C36130BC7047AFF300804D
:1045E00010B50446FDF72CFAE268236962619B1A54
:1045F000A261A36020466FF00101BDE81040FEF704
:104600004FB800BFAFF30080AFF30080AFF300807E
:10461000F8B504460F461646202383F31188FDF7AC
:1046200017FBFDF785F903E0FEF702F8051E25DB11
:10463000FDF706FAA36820463146002BF4D06269E4
:10464000013B511C6161A3601770236962699A4242
:1046500024BFE3686361E3690BB120469847FDF727
:1046600077F9FDF7FDFA164B9A691B6892689B680B
:104670009A421AD3002080F31188F8BDFDF768F93B
:10468000FDF7EEFA0E4B9A691B6892689B689A4296
:1046900006D20C4812F0ECFE00BE0B48FDF7B8F84D
:1046A000002383F311882846F8BD064812F0E0FE87
:1046B00000BE0548FDF7ACF8002080F31188F8BD76
:1046C000F81200207CAE010830B50108AFF300807D
:1046D00038B50446FDF7B4F9FDF7B2F96369A2698C
:1046E0009342A3680FD02069511C0133A360A161DC
:1046F0008142157801D3E368A36120460021FDF7CC
:10470000AFFF284638BD002BEDD06FF0020038BD5A
:104710002DE9F04F83B083460C460193D0F81C90EE
:104720001546002A66D0202383F31188FDF790FAFE
:10473000FDF7FEF80027DFF8E880BA46FDF780F9BC
:10474000DBF80830661C5A1E5846002B39D0DBF8BF
:104750001430CBF808205A1CCBF8142022781A7099
:10476000DBF81030DBF814209A4224BFDBF80C3061
:10477000CBF81430B9F1000F00D0C847FDF7E8F8C6
:10478000FDF76EFAD8F81820D8F8003092689B68C8
:104790009A4206D21F4812F06BFE00BE1E48FDF77B
:1047A00037F88AF31188013D07F101074FF0200324
:1047B0001CD083F31188FDF74BFA3446FDF7B8F8A7
:1047C000BCE758460199FDF733FF0028B6D0FDF746
:1047D000BFF8FDF745FAD8F81820D8F800309268ED
:1047E0009B689A420AD3002383F31188384603B0AA
:1047F000BDE8F08F0948FDF70BF894E7054812F083
:1048000037FE00BE0448FDF703F8002383F3118848
:10481000ECE700BF7CAE010830B5010800B5010827
:10482000F8120020AFF30080AFF30080AFF30080F8
:10483000054A064B0648074922F0070223F0070302
:1048400002600B60704700BF5361002000C0012070
:10485000D4180020D0180020AFF30080AFF3008000
:1048600010B50446FDF7ECF80649074B08681A68CE
:10487000E31D23F00703121A93429ABF1B180B6023
:10488000002010BDD4180020D0180020AFF3008005
:1048900010B52023044683F31188FDF7D9F9FDF7FD
:1048A00047F82046FFF7DCFF0446FDF751F8FDF717
:1048B000D7F9094B9A691B6892689B689A4206D29D
:1048C000064812F0D5FD00BE0548FCF7A1FF002305
:1048D00083F31188204610BDF81200207CAE010839
:1048E00040B50108AFF30080AFF30080AFF3008064
:1048F000024A034B10681B68C01A7047D01800208A
:10490000D4180020AFF30080AFF30080AFF3008035
:10491000044B054A1A6003F1100000229A60DA6025
:10492000FEF72EBBD818002091480008AFF3008096
:1049300070B516464A070C46054601D1730702D0EA
:104940000748FCF765FF0023083EAC602B60EB6076
:1049500084E8480005F11000BDE87040FEF710BB88
:1049600080B50108AFF30080AFF30080AFF30080A3
:10497000F8B5214E002818BF064606F1100707318A
:10498000384621F0070506F10804FEF791FB03E025
:1049900043689D4212D9044620680028F8D1384661
:1049A000FEF7FEFB33682BB305F10800984708B308
:1049B0000660456000F108042046F8BD05F10802D4
:1049C0009A4209D9036823600446384644F8086BC4
:1049D000FEF7E6FB2046F8BD6FF00701491B00EB30
:1049E000020E0B4401688150CEF80430C4F800E098
:1049F0004560E9E70024DFE7D8180020AFF3008026
:104A00002DE9F041804600285CD058F8086C06F18A
:104A100010073846FEF74CFB08363446A8F1080567
:104A2000AC4204D86368083323449D420BD3B4429C
:104A300012D0AC4210D32468AC42F8D86368083373
:104A400023449D42F3D2214812F012FD00BE2048BB
:104A5000FCF7DEFEB442ECD123681BB19D4201D3CA
:104A60001C46DDE758F8042C48F8083C256002F1A4
:104A7000080358F8080CE91881420AD0626802F16C
:104A8000080323449D4212D03846BDE8F041FEF7AA
:104A900087BB4968EB5848F8083C5318083348F876
:104AA000043C626802F1080323449D42ECD118E9FA
:104AB0000A0013440833216063603846BDE8F041C2
:104AC000FEF76EBB0248FCF7A3FE9EE760B5010847
:104AD00050B50108AFF30080AFF30080AFF3008062
:104AE00070B50F4C002818BF044604F11005284685
:104AF0000E46FEF7DDFAA36873B10022144658682B
:104B00001B6801340244002BF9D106B132602846FB
:104B1000FEF746FB204670BD1A461C46F5E700BF6F
:104B2000D8180020AFF30080AFF30080AFF300800F
:104B300070B50D461646044608B1032902D803484D
:104B4000FCF766FE002384E8680070BDA0B501088C
:104B500010B50446FCF774FF5CB1206810B103681F
:104B6000236010BDA3681BB16068BDE81040184702
:104B700010BD0248FCF74CFEEFE700BFD0B50108BE
:104B800010B52023044683F31188FDF761F8FCF784
:104B9000CFFE2046FFF7DCFF0446FCF7D9FEFDF709
:104BA0005FF8094B9A691B6892689B689A4206D223
:104BB000064812F05DFC00BE0548FCF729FE002304
:104BC00083F31188204610BDF81200207CAE010846
:104BD000F0B50108AFF30080AFF30080AFF30080C1
:104BE00038B504460D46FCF72BFF24B11DB12368F0
:104BF0002B60256038BD0348FCF70AFE23682B6054
:104C0000256038BDE0B50108AFF30080AFF3008048
:104C100038B505460C46202383F31188FDF718F8B4
:104C2000FCF786FE28462146FFF7DAFFFCF790FEE8
:104C3000FDF716F8084B9A691B6892689B689A42C0
:104C400006D2064812F014FC00BE0548FCF7E0FD51
:104C5000002383F3118838BDF81200207CAE0108D0
:104C6000F0B50108AFF30080AFF30080AFF3008030
:104C700070B50D461446064628B142B90948BDE84C
:104C80007040FCF7C5BD0748FCF7C2FD44B129469A
:104C90003046FFF7BDFF7368013C1D44F7D170BD7E
:104CA00070BD00BFC0B50108AFF30080AFF3008056
:104CB000014B01221A70704705200020AFF30080DD
:104CC00070B5094E4C243068074D03682D219B6850
:104CD0009847013CF7D128680449036802221B6801
:104CE000BDE87040184700BF3820002020B60108FA
:104CF00010B370B5134A84B06D466C46A2FB001326
:104D0000DB0803EB8301A0EB410000F13001C9B2E5
:104D100004F8011B1846002BF0D1AC420AD90A4E08
:104D2000013C01E014F8011D306803689B68984756
:104D3000AC42F7D104B070BD034B18680368302152
:104D40009B681847CDCCCCCC38200020AFF3008036
:104D500038B50178044641B1044D286803689B6862
:104D6000984714F8011F0029F7D138BD38200020DA
:104D700070B50178094D044639B1286803689B680D
:104D8000984714F8011F0029F7D1286804490368DF
:104D900002221B68BDE87040184700BF3820002081
:104DA00020B60108AFF30080AFF30080AFF30080BE
:104DB00010B52023044683F31188FCF749FFFCF764
:104DC000B7FD0D4A13681C7001331360FCF7C0FD7A
:104DD000FCF746FF094B9A691B6892689B689A42E8
:104DE00006D2074812F044FB00BE0648FCF710FD4F
:104DF000002383F3118810BD08200020F812002042
:104E00007CAE010840B80108AFF30080AFF300802A
:104E100059B910B40649074C074A012323701060A2
:104E20000B7018465DF8044B704700231846704716
:104E30000C2000200420002000200020AFF3008080
:104E4000F0B40E4E0E4F35683B4605E013F8014BAB
:104E500011F8012B944207D1AB42F7D30B781BB961
:104E600037601846F0BC7047064C0749074A0123D3
:104E7000237010600B701846F0BC704708200020AB
:104E80003C200020042000200C20002000200020D6
:104E9000F8B506460F461446202383F31188FCF725
:104EA000D7FEFCF745FD4FF080435D6AFCF750FDEF
:104EB000FCF7D6FE0E4B9A691B6892689B689A4273
:104EC00006D20C4812F0D4FA00BE0B48FCF7A0FC46
:104ED000002080F31188ED1BE41BA54206D307498F
:104EE000074A084B0120087010701E60F8BD00BF13
:104EF000F81200207CAE010840B801080420002010
:104F00000C20002000200020AFF30080AFF30080D1
:104F100038B5064C04F1140554F8043B18460BB19F
:104F2000FDF72EFAAC42F7D138BD00BF2420002097
:104F300070B5074C002604F1140554F8040B18B1A1
:104F4000FDF71EFB44F8046CAC42F6D170BD00BF07
:104F500024200020AFF30080AFF30080AFF3008087
:104F600010B50120FDF73CFA202383F31188FCF7EC
:104F70006FFEFCF7DDFC4FF080435C6AFCF7E8FC59
:104F8000FCF76EFE094B9A691B6892689B689A420F
:104F900006D2074812F06CFA00BE0648FCF738FC4F
:104FA000002383F31188204610BD00BFF8120020B3
:104FB0007CAE010840B80108AFF30080AFF3008079
:104FC00042F2107310B503FB00F0194C194A013876
:104FD000A4FB0034A409002313700134202383F3BD
:104FE0001188FCF735FEFCF7A3FCFCF729FD1248FD
:104FF000C3680BB1FDF74CF8104A0F480023214657
:10500000FCF7F6FFFCF7A4FCFCF72AFE0C4B9A69B0
:105010001B6892689B689A4206D20A4812F028FAE6
:1050200000BE0948FCF7F4FB002383F3118810BD90
:10503000D34D62100520002010200020B14C000844
:10504000F81200207CAE010840B80108AFF30080E0
:105050002DE9F04FA04CA14D206083B0A048FFF790
:1050600087FEA048FFF784FE9F48FFF781FE2A21B4
:10507000206803689B68984715F8011F0029F7D13D
:105080009A489B4DFFF774FE2A21206803689B68AD
:10509000984715F8011F0029F7D19648964DFFF75C
:1050A00067FE2A21206803689B68984715F8011F4E
:1050B0000029F7D19148924DFFF75AFE2A21206826
:1050C00003689B68984715F8011F0029F7D18D48A0
:1050D0008D4DFFF74DFE2A21206803689B68984795
:1050E00015F8011F0029F7D18848894DFFF740FEC8
:1050F0002A21206803689B68984715F8011F00293A
:10510000F7D18448844DFFF733FE2A2120680368D5
:105110009B68984715F8011F0029F7D17F48804DFB
:10512000FFF726FE2A21206803689B68984715F838
:10513000011F0029F7D17B4B7B4800910193FFF7BA
:1051400017FE6748DFF82082DFF88CB1FFF710FE0A
:10515000764B00991970009B01330093002658F894
:10516000263008EB8607002B00F08780704DFFF794
:10517000A7FD2D21206803689B68984715F8011F3B
:105180000029F7D100986B4DFFF7B2FDDBF8000066
:1051900003682E219B68013698473046FFF7A8FD2B
:1051A0002021206803689B68984715F8011F002993
:1051B000F7D13B681D68297839B1206803689B687E
:1051C000984715F8011F0029F7D15B48DFF89C913B
:1051D0005A4DDFF87CA1FFF7CBFD4FF4FA60FDF7E5
:1051E000FFF8574A3F68C5F800A0002313605360DA
:1051F0009360D36013617A6889F8003002B19047F8
:10520000FB689847BB6803B19847FFF791FE99F890
:105210000030002B53D04B4F2D21206803689B6832
:10522000984717F8011F0029F7D1474B474F1868D7
:10523000FFF75EFD2021206803689B68984717F8F8
:10524000011F0029F7D12B68534509D9404F206829
:1052500017F8011B03689B6898472B689F42F6D399
:105260003C48FFF785FD019BD3F8008058F82630B5
:1052700008EB8607002B7FF479AF019B53F8048F6E
:105280000193B8F1000F7FF466AFFFF719FD324DBF
:105290001348FFF76DFD4621206803689B68984717
:1052A00015F8011F0029F7D1204B1B785BB92B485B
:1052B000FFF75EFD1D4B187803B0BDE8F08F28485E
:1052C000FFF756FD4BE72748FFF752FD174B1878BD
:1052D00003B0BDE8F08F00BF3820002024B60108DD
:1052E000E0CF010804B7010820B7010844B701085E
:1052F00038B6010850B701084CB6010868B7010874
:1053000060B60108B0B7010874B60108BCB701085F
:1053100088B60108C8B701089CB60108E0B70108C3
:10532000B0B6010850B801080CB801080C200020E4
:10533000C4B60108D4B60108B4D60108082000207C
:1053400024200020D8B6010800200020F0B6010873
:105350003C20002024B70108F4B6010834B7010846
:1053600028B701083CB70108C0B801080420002094
:10537000F0B5274F274EBB69274D9A68274B3068F9
:10538000274C83B0053A00934FF4B4712B46FCF7D9
:1053900027FFBB6923499A68736820600091043A2B
:1053A00018464FF4B4712B46FCF71AFFBA69B3687C
:1053B00092681D4960600091033A18464FF4B47139
:1053C0002B46FCF70DFFBA69F36892681749A06095
:1053D0000091023A18464FF4B4712B46FCF700FFD7
:1053E000BA69336992681249E060013A009118463F
:1053F0004FF4B4712B46FCF7F3FE2061FFF798FDE4
:105400000C49012003B0BDE8F040FFF719BD00BF13
:10541000F812002000B6010841540008F4B8010851
:1054200024200020E0B80108E4B80108E8B8010829
:10543000ECB80108F0B80108AFF30080AFF30080CA
:1054400008B50078FFF7B4FC002008BDAFF300807A
:1054500070B5354C354EA36970689A68344B354D3C
:1054600082B0043A00934FF4B471334BFCF7B8FEAA
:10547000A36931689A68314B68600093053A084621
:105480002D4B4FF4B471FCF7ABFEA36931699A68F8
:105490002B4B28600093013A0846274B4FF4B47118
:1054A000FCF79EFEA369F1689A68264B2861009379
:1054B000023A0846204B4FF4B471FCF791FE2023CA
:1054C000E86083F31188FCF7C3FBFCF731FAA369AA
:1054D000B0689A681C4B0093033A174B4FF4B471B1
:1054E000FCF756FEA860FCF733FAFCF7B9FBA2699B
:1054F000236892689B689A4206D2144811F0B8FF5C
:1055000000BE1348FCF784F9002383F31188A868D0
:10551000FCF7B6FEFFF70CFD0E49012002B0BDE816
:105520007040FFF78DBC00BFF812002000B60108E4
:10553000E0B801082420002041540008F4B8010814
:10554000ECB80108E8B80108E4B801087CAE01082D
:1055500060B90108F0B80108AFF30080AFF3008034
:1055600038B5FFF7FDFC202383F31188FCF770FBAF
:10557000544CFCF7DDF94FF080435D6AFCF7E8F925
:10558000FCF76EFBA269236892689B689A4206D278
:105590004D4811F06DFF00BE4C48FCF739F900236F
:1055A00083F311884FF47A70FCF71AFF05F57A71CE
:1055B00005F2EB320120FFF76BFC00B138BD202370
:1055C00083F31188FCF744FBFCF7B2F94FF08043FA
:1055D0005D6AFCF7BDF9FCF743FBA269236892689A
:1055E0009B689A4206D2384811F042FF00BE374805
:1055F000FCF70EF9002383F311884FF47A70FCF75F
:10560000EFFE05F57A7105F2EB320220FFF740FC60
:105610000028D3D1202383F31188FCF719FBFCF772
:1056200087F94FF080435D6AFCF792F9FCF718FBAD
:10563000A269236892689B689A4206D2224811F0B8
:1056400017FF00BE2148FCF7E3F8002383F311881D
:1056500042F21070FCF7C4FE05F51C510A461332E5
:1056600010310320FFF714FC0028A7D1202383F377
:105670001188FCF7EDFAFCF75BF94FF080435D6AA7
:10568000FCF766F9FCF7ECFAA269236892689B685C
:105690009A420FD3002383F3118805F57A742046CC
:1056A000FCF7CEFE214605F2EB320420BDE838407F
:1056B000FFF7EEBB044811F0DBFE00BE0348FCF729
:1056C000A7F8E7E7F81200207CAE010860B90108EE
:1056D000F8B5614EB3699C68651C2846FCF710FE5E
:1056E000011B0746B1FA81F101204909FFF790FB40
:1056F00000B1F8BDB36999680220691AB1FA81F165
:105700004909FFF785FB0028F3D13846FCF7F8FD7F
:10571000291A0320B1FA81F14909FFF779FB002822
:10572000E7D1B36999680420611AB1FA81F1490996
:10573000FFF76EFB0028DCD1202383F31188FCF7F0
:1057400087FAFCF7F5F8B269936802339360FCF7C7
:10575000FFF8FCF785FAB269336892689B689A4251
:1057600006D23E4811F084FE00BE3D48FCF750F8DA
:10577000002383F31188B369374F9968A61C711A07
:105780000520B1FA81F14909FFF742FB0028B0D1A9
:105790002846FCF7B5FD011B0620B1FA81F1490945
:1057A000FFF736FB0028A4D1BB6999680720711A5E
:1057B000B1FA81F14909FFF72BFB002899D1BB69A8
:1057C000196C0820691AB1FA81F14909FFF720FB29
:1057D00000288ED1E61C3046FCF792FD281A414283
:1057E00041410920FFF714FB002882D1BB69996869
:1057F000721A514251410A20FFF70AFB00287FF438
:1058000078AFBB69196C731A594259410B20FFF7E5
:10581000FFFA00287FF46DAF202383F31188FCF793
:1058200017FAFCF785F8BB699C601C64FCF790F8DC
:10583000FCF716FABA693B6892689B689A4206D2EE
:10584000064811F015FE00BE0548FBF7E1FF0023F6
:1058500083F311884DE700BFF81200207CAE0108E9
:1058600060B90108AFF30080AFF30080AFF30080B0
:1058700010B5044C2046FDF7ABF92046FDF748FA79
:10588000002010BD00080020AFF30080AFF30080BF
:1058900010B504460348FDF79BF92078FFF788FA16
:1058A000002010BD00080020AFF30080AFF300809F
:1058B00001480021FDF7D4B800080020AFF30080B4
:1058C00001480021FDF7CCB800080020AFF30080AC
:1058D00001480021FDF7C4B800080020AFF30080A4
:1058E00010B5204B204A9B6910689A681F4B204CCA
:1058F00082B00021013200914FF4B471FCF770FCCA
:105900001C4B214618602046FDF7C2FA2168012091
:10591000091BB1FA81F14909FFF77AFA08B102B01F
:1059200010BDA168B1FA81F102204909FFF770FAB0
:105930000028F4D121462046FDF7AAFA2168032069
:10594000091BB1FA81F14909FFF762FA0028E6D193
:10595000A168B1FA81F10420490902B0BDE8104004
:10596000FFF756BAF812002000B601087158000877
:105970000008002024200020AFF30080AFF3008057
:1059800010B52023044683F31188FCF761F9FBF777
:10599000CFFFFCF755F8A368002B17DDFCF7F8FAEA
:1059A000FBF7D6FFFCF75CF90A4B9A691B68926813
:1059B0009B689A4206D2084811F05AFD00BE07487B
:1059C000FBF726FF002080F3118810BD2046FDF76D
:1059D000EFF9E3E7F81200207CAE010840BA0108B5
:1059E00008B54FF4FA70FCF7FBFC202383F3118811
:1059F000FCF72EF9FBF79CFF0D48FDF7D9F9FCF7F2
:105A0000C7FAFBF7A5FFFCF72BF90A4B9A691B684D
:105A100092689B689A4206D2074811F029FD00BEA1
:105A20000648FBF7F5FE002080F3118808BD00BF93
:105A300000080020F81200207CAE010840BA0108DE
:105A40002DE9F0435C4C5D4FA369D7F800809A685C
:105A5000DFF894915A4B5B4E5B4D83B005324FF4A7
:105A6000B471CDF800904046FCF7BAFBA3697968A1
:105A70009A68564B30600132084600934FF4B47177
:105A80004F4BFCF7ADFBA369B9689A68504B706047
:105A90000332084600934FF4B471494BFCF7A0FB66
:105AA000A369F9689A684B4BB060043208460093CA
:105AB0004FF4B471424BFCF793FBA36939699A68C0
:105AC000454BF0600232084600934FF4B4713C4BF2
:105AD000FCF786FB30612846FDF71AF92846FDF7EA
